:10000000C0170020A10A0000394800008D0A000036
:100010008D0A00008D0A00008D0A0000000000001B
:10002000000000000000000000000000190C0000AB
:100030008D0A000000000000B10B00008D0A0000D6
:10004000E10D0000E10D0000E10D0000E10D0000F8
:10005000E10D0000E10D0000E10D0000E10D0000E8
:10006000E10D0000E10D0000E10D0000E10D0000D8
:10007000E10D0000E10D0000E10D0000E10D0000C8
:10008000E10D0000E10D0000E10D0000E10D0000B8
:10009000E10D0000E10D0000E10D0000E10D0000A8
:1000A000E10D0000E10D0000E10D0000E10D000098
:1000B000E10D0000E10D0000E10D0000E10D000088
:1000C000E10D0000E10D0000E10D0000E10D000078
:0C00D000E10D0000E10D0000E10D00005A
:1000DC0053B94AB9002908BF00281CBF4FF0FF31A3
:1000EC004FF0FF3000F00CB8ADF1080C6DE904CE08
:1000FC0000F008F8DDF804E0DDE9022304B07047F5
:10010C00704700BF2DE9F04786468C460846089E8E
:10011C00154674461946002B40F0C2808542B2FA4F
:10012C0082F245D94AB1C2F1200300FA02FC2EFA40
:10013C0003F3954043EA0C0C94404FEA154EA8B2D9
:10014C00BCFBFEF8230C0EFB18CC08FB00F943EAB1
:10015C000C43994528D9EB1808F1FF3704D299457F
:10016C0002D9A8F102072B44A3EB0903A4B2B3FBF9
:10017C00FEFC0EFB1C330CFB00F044EA0344A042D3
:10018C0014D92C190CF1FF3304D2A04202D9ACF1D2
:10019C0002032C44241A43EA07401EB1D440002326
:1001AC0034607360BDE8F0874746DDE76346F1E7EE
:1001BC0092BB431B01214FEA154EAFB2B3FBFEFCC1
:1001CC00200C0EFB1C330CFB07F840EA034398454C
:1001DC0062D9EB180CF1FF3004D2984502D9ACF17E
:1001EC0002002B44A3EB0803A4B2B3FBFEFC0EFBF2
:1001FC001C330CFB07F744EA0344A7424ED92C19D5
:10020C000CF1FF3304D2A74202D9ACF102032C4407
:10021C00E41B43EA0040C0E7C2F1200320FA03F1DB
:10022C00954090402EFA03F303434FEA154EAFB2BC
:10023C00B1FBFEFC0EFB1C10190C0CFB07F841EA81
:10024C000041884504FA02F422D969180CF1FF30F8
:10025C0004D2884502D9ACF102002944A1EB080173
:10026C009BB2B1FBFEFC0EFB1C110CFB07F743EA27
:10027C0001439F420ED9EB180CF1FF3104D29F427F
:10028C0002D9ACF102012B44DB1B41EA004192E79D
:10029C006046E3E76146F7E76046A3E76346B7E7E6
:1002AC00834206D916B9002108467BE7C6E900E06F
:1002BC00F9E7B3FA83F78FB9834201D3724508D8B3
:1002CC00BEEB020460EB030301209C461EB9002127
:1002DC0068E73846FAE7C6E9004CF8E7C7F1200CA6
:1002EC00BB4022FA0CF41C432EFA0CF120FA0CF34E
:1002FC00B84001434FEA14490EFA07F5B3FBF9F87D
:10030C001FFA84FE09FB18300B0C08FB0EFA43EAAB
:10031C0000439A4502FA07F240D9E31808F1FF307E
:10032C0004D29A4502D9A8F102002344A3EB0A0394
:10033C0089B2B3FBF9F809FB183308FB0EFE41EA4E
:10034C0003418E452CD9611808F1FF3304D28E4538
:10035C0002D9A8F10203214443EA0040A0FB029811
:10036C00A1EB0E014145CE46434602D306D14D4585
:10037C0004D2B9EB020E68EB04030138002EA6D0B0
:10038C00B5EB0E0261EB030101FA0CFC22FA07F348
:10039C004CEA0303F940C6E9003198E74046C5E74B
:1003AC004346D9E710B50B78022B02D0052B18D099
:1003BC0010BDCB68012BFBD14A688B68D35C312B09
:1003CC0007D0322B09D0332BF2D1094803F058FF58
:1003DC00EEE7084803F054FFEAE7074803F050FF44
:1003EC00E6E78368DC6864230A220449A047DFE758
:1003FC003C6E00004C6E0000446E0000E0080020D3
:10040C0010B5254B186806F0D1F800283AD02348CF
:10041C0006F0CCF800283AD04FF4D011204803F065
:10042C0024FF002831DB4FF4D0111E4803F01DFFD0
:10043C0000282ADB4FF4D0111B4803F016FF0028CC
:10044C0023DB154B186883681B68F3B1002217492E
:10045C009847D0B9104B186883685C684FF0FF332D
:10046C006D221349A04780B90B4B18688368DC6870
:10047C0064230A220F49A04738B94FF47A7003F06D
:10048C0009FFFAE70C4804F032F8012010BD0B48C4
:10049C0004F02DF8F9E700BF30050020EC6B0000EC
:1004AC004C6E0000446E00003C6E0000B103000076
:1004BC00C0040020E0080020086E0000206E000040
:1004CC0008B5024B1B68984708BD00BF34050020D7
:1004DC00014B1860704700BF3405002000B585B093
:1004EC000A460023009301930293039302238DF891
:1004FC000230044B01930146684603F031FC05B011
:10050C005DF804FBCD04000080B505460E46174689
:10051C00984603F0C1F8034606F02EFB0446DFF8BC
:10052C00189049F80030424639463046A84754F8EE
:10053C00090000F01DFB00BF080000002DE9F0438E
:10054C0083B0044608461546238B13F0080F05D1DB
:10055C0003F0070600230093019354E0012909D00E
:10056C0043F02003238385F31188BFF36F8F03B00F
:10057C00BDE8F08343F010032383F4E7204603F037
:10058C00EEFF42E0D4F814904A466946204603F048
:10059C00FFFF4FF00008238B03F00707B74269D029
:1005AC00A268002A66D0012243F00803238385F356
:1005BC001188BFF36F8F002A64D1009B2BB14B467F
:1005CC003A466946204604F05CF8B8F1000F02D0B8
:1005DC0034492046C047EFF31185202383F312885A
:1005EC00BFF36F8F238B23F008032383238B13F02C
:1005FC00100F4DD023F0100323830120268B06F01F
:10060C0007060028AFD00228B8D00028ABD001389C
:10061C0004282BD801A353F820F000BF910500004B
:10062C00790600003D06000051060000650600003A
:10063C002369D3F800800621204603F066FF4FF0B3
:10064C000009A8E72369D3F804800421204603F0AD
:10065C005CFF4FF000099EE72369D3F80880052161
:10066C00204603F052FF4FF0000994E74FF00008CA
:10067C00C14690E7009A0AB1002295E7B8F1000F45
:10068C0092D1B3E74A463946204603F046FF94E739
:10069C0013F0200F04D023F0200323830220ADE7B6
:1006AC000020ABE7BD460000014B03600020704703
:1006BC00546E000008B5034803F019FF024803F01C
:1006CC0016FF08BD546E00008C6E000030BFFFF7A3
:1006DC00FDBF00BF38B50446054D2A46054906F056
:1006EC00A7F9054A0021601906F0CAF938BD00BF08
:1006FC0000000000F46D00000400000070B5064618
:10070C00064D074B1D444C1B2046FFF7E3FF083CEE
:10071C00C6F8A44005F1080070BD00BF0000000041
:10072C0004000000074B9B6893F90E20002A08DB9D
:10073C00044A5269934204D0034A536843F08053ED
:10074C0053607047A409002000ED00E038B5154651
:10075C00204B9B6A13F4805F19D116241D4B9B6AA6
:10076C0013F4006F00D018241A4B9B6A13F4007F0B
:10077C0010D0184B9A6B9B6A13F4004F09D0D9B167
:10078C00144A936A23F400439362192402E0172459
:10079C00E4E719240F4B9B6A13F4806F00D01A24E2
:1007AC000C4B9B6A13F4807F08D10A4B9B6A13F4A1
:1007BC00005F04D01C2402E01924EBE71B24054A3B
:1007CC00936A43F47F439362012104F035F8287057
:1007DC00204638BD00ED00E0174B9B6A13F0007FFC
:1007EC0025D11D20144B9B6A13F0807F00D01F2055
:1007FC00114B9B6A13F4002F00D021200E4B9B6AE7
:10080C0013F4802F00D022200B4B9B6A13F4003F73
:10081C0000D02320084B9B6A13F4803F09D1064A71
:10082C00936A6FEA03436FEA1343936270471E2087
:10083C00D8E72420F3E700BF00ED00E081690D4B01
:10084C005A6942F480725A61BFF34F8FBFF36F8FB6
:10085C0031F8021C5A6922F480725A61BFF34F8F2F
:10086C00BFF36F8F4DF60273994201D00020704791
:10087C000120704700ED00E070B504461646324B7F
:10088C009B6A13F0100F1AD110252F4B9B6A13F093
:10089C00080F00D012252C4B9B6A13F0020F10D0BE
:1008AC00294B586B9B6A13F0800F3DD000293FD029
:1008BC00254A936A23F080039362132503E01125E4
:1008CC00E3E76FF01500204B9B6A13F0010F00D08B
:1008DC0014251D4B9B6A13F0200F00D015251A4BC5
:1008EC009B6A13F0100F04D1174B9B6A13F0020F85
:1008FC0004D0154B5B6813F4006F1BD1124B9B6A31
:10090C0013F0200F04D0104A536A23F4005353629F
:10091C000D4A936A43F0FF0393620121204603F0D2
:10092C008BFF3070284670BD6FF015001325CAE799
:10093C001325C8E7214600F0E9F90028DED080F342
:10094C0009880225DAE700BF00ED00E038B505465E
:10095C0000230B701A4BD86A10F002002DD10C46F4
:10096C00DB6A002B2ADB164BD86A10F0804025D0AE
:10097C002846FFF763FF08B128681FE0104B9B6AFD
:10098C0013F0FF0F0DD10E4B986A10F47F400ED16F
:10099C000B4B9B6AB3F5803F10D32846FFF71CFF27
:1009AC000CE0224601212846FFF766FF06E02246AE
:1009BC0001212846FFF7CAFE00E0002038BD00BF29
:1009CC0000ED00E030B58BB00C46264B5968C1F3F6
:1009DC000801002383F31188BFF36F8F02F07F436C
:1009EC00B3F17F4F15D102F00C03082B14D012F089
:1009FC00080F0BD000250DF12702204603F021FF34
:100A0C0086469DF8273053B10BB030BD0446012506
:100A1C00F1E700252C46EEE700252C46EBE70DF11F
:100A2C00040C20686168A268E368ACE80F002069D8
:100A3C006169A269E369ACE80F0045B1C3F3080230
:100A4C005AB96FEA53236FEA4323089305E0089BD6
:100A5C0023F4FF7323F00103089301A9704603F0FC
:100A6C00D6FED1E700ED00E0044B5A6942F01002CB
:100A7C005A615A6922F008025A61704700ED00E091
:100A8C00EFF30880EFF3098101B57246FFF79AFF87
:100A9C0001BD00BF002080F31488BFF36F8F114895
:100AAC0080F3088800201049087001F0BDFB00207D
:100ABC000E490860BFF34F8F00F030F8202080F310
:100ACC0011880B484FF40461401880F30988EFF348
:100ADC0014800221084380F31488BFF36F8F00F059
:100AEC00D7F80000C0170020E109002094ED00E0C9
:100AFC00000A0020084BD3F89000C0F30720002315
:100B0C0006E0054AC2F898300021C2F8A010013363
:100B1C008342F6DB704700BF00ED00E010B572B603
:100B2C00002484F31388FFF7E5FF234608E003F164
:100B3C0020010E4A4FF0FF3042F821000133DBB2A6
:100B4C00072BF4D9002308E003F16001074A4FF0AA
:100B5C00FF3042F821000133DBB2072BF4D962B627
:100B6C00BFF34F8FBFF36F8F10BD00BF00E100E0EC
:100B7C0008B50A4B9B68834202D002F093FD08BD76
:100B8C00EFF30583002BF8D0054B5A6842F08052E6
:100B9C005A605A6A22F400425A62EEE7A409002015
:100BAC0000ED00E016498A684FF030001044EFF376
:100BBC00098C80E8F01F202080F31288BFF36F8F20
:100BCC00104F4FF000664A698A603E604FF0A404F3
:100BDC00141920680C4C2060D2F8A8000023C2F82D
:100BEC00A83080F3118804B5104600F011F9BDE867
:100BFC00044002F1300090E8F01F8CF30988704734
:100C0C00A409002004ED00E0EC0800201EF0040F05
:100C1C000CBFEFF30880EFF30980816911F8021C17
:100C2C000229FFD001B5724603F0FAFD01BD00BFE9
:100C3C00002807DB00F01F02400901239340024A01
:100C4C0042F82030704700BF00E100E0002808DBCC
:100C5C004901C9B200F1604000F5614080F8001311
:100C6C00704700F00F004901C9B2014B195470478D
:100C7C0014ED00E04209054B53F8222000F01F0050
:100C8C00012303FA00F01040704700BF00E100E0C0
:100C9C0008B50B4B0B4A22F07F029A60BFF34F8FC3
:100CAC00BFF36F8FD3F8882022F47002C3F888202A
:100CBC0002F068F802F054FE00F072F802F0C0F88E
:100CCC0000ED00E00000000010B4A2F120040E4979
:100CDC0042F8081C21F0010142F8081C42F8203CA3
:100CEC00019B42F81C3C029B42F8183C039B42F8C7
:100CFC00143C4FF0807342F8043C04650023C0F8A8
:100D0C00A83010BC704700BF15050000104B9B6845
:100D1C00BBB110F1160F0BD0D3F89420A2F1400CFC
:100D2C00844510D8824210D98A4207D800207047D7
:100D3C00D3F894208A4201D800207047D3F894004D
:100D4C00704700207047002070470020704700BF9C
:100D5C00A409002008B50E4615460A4A9060D0F842
:100D6C00A420094B1A6000F053F82C4686F309882E
:100D7C000020064B98472046002100220023044CFB
:100D8C00204700BFA4090020EC080020B748000051
:100D9C0015050000014B10221A61704700ED00E0B0
:100DAC00002206E003F00F030949194420230B76B7
:100DBC000132262A0ADC53B2002BF3DB03F1604329
:100DCC0003F56143202183F80013F1E7704700BF5E
:100DDC00FCEC00E008B5EFF30583103B044A02EB92
:100DEC00C301496852F833008847FFF79BFC08BDE4
:100DFC00146C000008B5034B034A0121034803F0AF
:100E0C00A7FE08BD0000012000000020BC6E000001
:100E1C0008B5D0F89430403B04480360402343604D
:100E2C00034B8360012103F097FE08BDF0080020FE
:100E3C0000000B15084AC2F898000B6823F01F033A
:100E4C00034343F01003C2F89C308B6843F001035A
:100E5C00C2F8A030704700BF00ED00E0084BD3F89B
:100E6C009030C3F30723013B984205D810B50446D4
:100E7C00FFF7E0FF204610BD6FF01500704700BF74
:100E8C0000ED00E010B5034C0123227803F060FD67
:100E9C00207010BDDC09002008B500230B4A127825
:100EAC0003F056FD10F1160F0FD0024606E0084B6A
:100EBC00C3F898200021C3F8A0100132044BD3F8DA
:100ECC009030C3F307239342F1DC08BDDC0900200A
:100EDC0000ED00E0044B0522C3F89420BFF34F8FC4
:100EEC00BFF36F8F704700BF00ED00E0BFF35F8F63
:100EFC00024B0022C3F89420704700BF00ED00E0C5
:100F0C0038B51C4B1D681C4BD3F89030C3F307232A
:100F1C009D422BD8FFF7EAFF002409E0154B5B68D4
:100F2C0004EB440103EB81012046FFF783FF0134FE
:100F3C00A542F3D81148057003F032FD10F1160FDD
:100F4C0013D00E4B1A780C4BD3F89030C3F3072305
:100F5C009A4207DA084BC3F898200021C3F8A01076
:100F6C000132F0E7FFF7B6FF002038BD4FF0FF303D
:100F7C00FBE700BFC86E000000ED00E0DC090020BC
:100F8C0008B5024B1B689847002008BDFC080020E0
:100F9C00034B1860034A937843F002039370704735
:100FAC00FC0800203805002008B5064921F007018F
:100FBC00C1F1005202F58032034803F018FA002008
:100FCC0008BD00BF07180020000900200123044AB7
:100FDC00C2F840354FF08042C2F878350020704797
:100FEC0000E0014030B108B5034B800143F0010330
:100FFC00984708BD704700BF006E0000004870475E
:10100C0060090020034BC01A8010034B03FB00F057
:10101C00704700BF20090020B76DDBB638B5054618
:10102C000C46FFF7EFFF01464022034803F02BFE6E
:10103C0001462846A04738BDD86B000030B583B0B8
:10104C0005460C46FFF7DEFF01464023009323467E
:10105C00054A064803F031FE011E01DB03B030BD2A
:10106C002846A047FAE700BF0F4D0000D86B0000E0
:10107C0008B510B101280DD008BD0021084803F0B7
:10108C0090FD836813F0070FF6D10021044803F09C
:10109C00E8FDF1E70121024803F0E3FDECE700BFB6
:1010AC00D86B000010B582B0EFF31184202383F3CA
:1010BC001288BFF36F8F154A136843F00201116059
:1010CC0013F0010F09D1002384F31188BFF36F8F44
:1010DC00B3B903F01EFE02B010BD0DF107020121E1
:1010EC004FF0804003F041FD9DF80730012B01D0FB
:1010FC000023E9E7FFF782FF03F0A1FD0123E3E7FB
:10110C000021034803F0ADFDE5E700BF70090020A6
:10111C00D86B000010B5EFF31184202383F31288F1
:10112C00BFF36F8F074A136823F00201116013F0AD
:10113C00010F04D084F31188BFF36F8F10BD03F03F
:10114C00EDFDF7E77009002070B582B00546012867
:10115C0007D14FF08043D3F81C3403F00303012B69
:10116C004BD005F092FA044618B9284B1B78002B8B
:10117C0038D1EFF31186202383F31288BFF36F8FDE
:10118C00012424B94FF080430222C3F8082301AA9A
:10119C0000214FF0804003F0E8FC20B1019B012BB3
:1011AC0026D0012D24D0FCB1304603F092FB4FF039
:1011BC008043D3F81835002BE9D14FF08043D3F896
:1011CC000431002BE3D04FF080430022C3F80421FC
:1011DC00D3F804210122C3F818250D49C1F8802148
:1011EC009A60D4E70026CCE7012003F0A1FDDEE7EE
:1011FC002CB186F31188BFF36F8F02B070BD4FF026
:10120C0080430222C3F80423F7E700BFE109002062
:10121C0000E100E000B585B0CDF800D0CDF804D0E9
:10122C0000230293012303936B46074A03F061FDED
:10123C00002805DB4FF480420023684601F08CFE49
:10124C0005B05DF804FB00BF694D000008B5064B06
:10125C001B7803B108BD4FF4A57005F0A1F9024B42
:10126C0001221A70F6E700BFDD09002070B50646B2
:10127C0000220121104603F00CFB114801F07CF90F
:10128C00104B984219D101F08BF90024012C12D883
:10129C002146304603F085FC05462146304603F0D6
:1012AC008BFC094903F012FA002805DB0123AB6023
:1012BC001C44E4B2EAE7002070BD6FF00400FBE7C9
:1012CC007D1000000000AD0BF86E000010B5044658
:1012DC00104B0121BFF35B8F53E8002F43E8001044
:1012EC000028F9D1BFF35B8F1AB1631E012B0DD906
:1012FC0010BD094803F060FC084900234B608B606B
:10130C00CB6001238B6003F0FEF9EEE72046FFF77C
:10131C001BFFEDE71C090020D86B00000C09002016
:10132C0010B504460A2806D0E1B206488368DB698A
:10133C009847204610BD03488368DB690D21984708
:10134C00F2E700BF006C000010B5044C2046FFF71C
:10135C001FFE2046FFF7BCF810BD00BF2D13000088
:10136C0008B5054805F022F918B1FFF7EDFF00208C
:10137C0008BD6FF01200FBE7006C000008B90248D2
:10138C0070470020704700BFEC6B00002DE9F04760
:10139C0086B0884615469946446801F01F06237BA3
:1013AC0046EA4316204603F096FD00285DD0B5F5BD
:1013BC00001F2AD00DF10C0A002703970497494609
:1013CC00284603F0FDFD8DF80C000097019702975D
:1013DC00CDF804A0A36823FA08F313F0010F02D18F
:1013EC00B5F1A07F18D010346A463146204605F07E
:1013FC00A2F8214B98423BD101223146204605F000
:10140C00BEF8002006B0BDE8F087314604F11000AC
:10141C0005F0B9F80020F5E706F01F03720917D1A3
:10142C004FF0A04203F5E07352F8233013F0010F94
:10143C00D9D104F110050DF117023146284605F0FB
:10144C0086F80E4B984205D00DF117030493CAE7AA
:10145C003A46E7E70DF11701284605F08CF8064BE4
:10146C009842F1D06FF00B00CCE76FF08500C9E724
:10147C006FF01500C6E700BF0000AD0B0400AD0B0C
:10148C002DE9F04389B0074689461446456801F0BA
:10149C001F082B7B48EA4318104603F021FD8DF8FA
:1014AC001E0040F206332340B3F5837F5ED016D87E
:1014BC00062B57D006D9B3F5807F0DD101238DF8BB
:1014CC001D3024E003B3022B03D104238DF81D300F
:1014DC001DE06FF015076FE06FF015076CE040F240
:1014EC000222934246D0B3F5407F03D103238DF8FB
:1014FC001D300CE0B3F5007F03D102238DF81D30B5
:10150C0005E06FF0150757E000238DF81D3001261C
:10151C0006FA09F63146384603F0F0FC071E4BDBA1
:10152C0014F4002F2AD06B68C3F80865284603F022
:10153C00D2FC50B310350DF11F024146284605F080
:10154C0006F8064614F4403F3AD14146284605F0C9
:10155C000AF83A4B9E422FD19DF81F10284605F0F1
:10156C0006F829E006238DF81D30D0E707238DF807
:10157C001D30CCE705238DF81D30C8E714F4802FFF
:10158C00D4D06B68C3F80C65D0E7C4F340438DF836
:10159C00083014F4803F0CBF012300238DF8103069
:1015AC00002301930DF11D0300930DF11E0304AAFA
:1015BC0002A9404603F001FC384609B0BDE8F083AF
:1015CC0002AA0023029303930493059306930592B6
:1015DC0004AA4146284604F0AEFF184B984202D0AC
:1015EC006FF01507E8E714F4003F1AD09DF81D3092
:1015FC008DF8103014F4803F0CBF012300238DF8BC
:10160C0011309DF81E308DF81230002304AA41468B
:10161C00284604F094FF094B98429AD06FF01507B6
:10162C00CAE700230493059306930DF11E0304935C
:10163C0004AA4146284604F07EFFECE70000AD0BFF
:10164C0010B54468204603F046FC08B9002010BDD4
:10165C001034204604F083FF08B10020F7E7002186
:10166C00204604F078FF094B98420BD10022084920
:10167C00204604F068FF00220521062003F009F93A
:10168C000020E4E76FF00400E1E700BF0000AD0BC1
:10169C000550000030B500F01F0C400917D14FF079
:1016AC00A04E0CF5E0705EF820500A4C2C4041EA3C
:1016BC00420141EA83039DF80C2043EA02239DF882
:1016CC00102043EA024323434EF8203030BD4FF044
:1016DC00000EE6E7F0F8FCFF2DE9F04F85B08046F0
:1016EC008B460392002423E04FF0FF3638E0039B37
:1016FC00C3F80C65012702973946B6F1FF3F15D0A8
:10170C00B1F1FF3F40F0E48058F80A3013F4004F79
:10171C0040F0E280029D00220192CDF80090C3F3CC
:10172C0041233A4629463046FFF7B4FF0134E4B270
:10173C005C4580F0D3804FEA840A58F82430C3F318
:10174C00C725C3F3C322C3F3080615F0080540F000
:10175C00C780674911F8029040F2FF129642C3D03D
:10176C001B0E192B00F2BF8001A252F823F000BF10
:10177C00FB160000E5170000F51700000318000029
:10178C00131800002318000031180000F318000093
:10179C00F3180000F3180000F318000041180000C3
:1017AC0057180000F3180000F3180000F31800009D
:1017BC00F3180000F3180000F3180000F3180000F1
:1017CC00F3180000F31800006D18000081180000D9
:1017DC0095180000A9180000039BC3F814652F4648
:1017EC0002954FF0FF3188E7039BC3F8086501278A
:1017FC000297394681E7039BC3F810652F46029583
:10180C004FF0FF3179E7039BC3F808652F4601239E
:10181C000293002171E7039BC3F80C650127029723
:10182C0000216AE7039BC3F810652F4602954FF021
:10183C00FF3162E7039BC3F80865B9F1000F37D09D
:10184C002F4602954FF0FF3157E7039BC3F80C6509
:10185C00B9F1000F34D02F4602954FF0FF314CE711
:10186C00039BC3F8606558F80A10C1F300410127C7
:10187C00029742E7039BC3F8646558F80A10C1F35A
:10188C0000410127029738E7039BC3F8686558F8B5
:10189C000A10C1F30041012702972EE7039BC3F8FE
:1018AC006C6558F80A10C1F300410127029724E730
:1018BC004F46CDF808904FF0FF314FF006091CE76A
:1018CC004F46CDF808904FF0FF314FF0060914E762
:1018DC00304603F0B9FB17E701271CE7002004E0B2
:1018EC006FF0150001E06FF0850005B0BDE8F08FDA
:1018FC004C6F00002DE9F84305460F46466804F08E
:10190C00C4FE20B9234B1B780BB3002300E001234A
:10191C00D5F810906A68D2F80080F3B9284603F025
:10192C008BFD0446736813F0040F03D04FF480034F
:10193C00C8F80433B36A1F700122B16A284603F059
:10194C0003FC84F31188BFF36F8FBDE8F883012388
:10195C00DEE784F31188BFF36F8FEFF3118420233C
:10196C0083F31288BFF36F8F284603F0C7FB002860
:10197C00EFD0D9F80030002BD4D0D3F8A420002A13
:10198C00D0D0D3F8B420002ACCDAD8F84C25C3F840
:10199C00B420C7E7E10900202DE9F04F83B01646CB
:1019AC00D0F810A0DAF80040D0F80490D9F8005024
:1019BC0099F80820002A40F0B68080460F4694F82B
:1019CC006120002A40F0B28094F86220002A40F096
:1019DC00B080B3F1FF3F41D0042B44DD564A82FB6B
:1019EC000312D817C0EB6200C117C90341EA50417A
:1019FC00C003524BC018524A4FF0000341F1000192
:101A0C00FEF766FBA065E1650023636527646664E9
:101A1C00A364E3642365D9F8043013F0040F02D0F7
:101A2C0094F8602012BBC5F83475C5F838650023EE
:101A3C00C5F81031D5F81021C5F84C31D5F84C311A
:101A4C00012384F86130D9F8043013F0040F5AD113
:101A5C0001232B60002003B0BDE8F08F002200238F
:101A6C00C4E91623D0E700200146CBE7B24228BFD9
:101A7C0032469346D9F82410384604F0D9FF5F4417
:101A8C00B6EB0B0615D0A36DE26D1343CBD0002340
:101A9C00C5F80831D5F8083104F10800D4E916234B
:101AAC004FF0000A4FF0000BCDE900AB02F018F933
:101ABC00B9E794F86020A2EB0B02D2B284F8602054
:101ACC00D9F8240000EB0B0104F0C0FF0AF1080A5E
:101ADC00BFF35B8F5AE8003F43F004034AE800323F
:101AEC00002AF7D1BFF35B8F45F30735002D08DBD8
:101AFC0005F01F026D09012393404035114A42F84D
:101B0C0025300020A7E7EFF31184202383F31288FC
:101B1C00BFF36F8F0221404603F00AFB84F3118858
:101B2C00BFF36F8F94E76FF0850094E76FF00F00B1
:101B3C0091E76FF00F008EE7676666663F420F0015
:101B4C0040420F0000E100E0F0B583B004461D46B2
:101B5C000669EFF31187202383F31288BFF36F8F8D
:101B6C003368D3F8A40000BBC3F8A4203368C3F8CF
:101B7C00A01001F06043B3F1005F1DD13368C3F8CE
:101B8C00A8103368C3F8AC203146204603F0F7FAAE
:101B9C0087F31188BFF36F8F204603F013FB80B3DC
:101BAC00B5F1FF3F10D100202CE087F31188BFF373
:101BBC006F8F6FF00F0025E033680022C3F8B02060
:101BCC00204603F01BFDDFE73468683425EAE57531
:101BDC00E917C90341EA5541ED030B4828180B4A94
:101BEC004FF0000341F10001FEF772FA02460B467A
:101BFC0000200021CDE90001204602F071F8002000
:101C0C0000E0002003B0F0BD3F420F0040420F0047
:101C1C0038B50446056943681B680B4AC3F80423AE
:101C2C00286800220949083004F0E3FE2B68DC63C5
:101C3C00286800220649683004F0DBFE2B68C3F8E4
:101C4C009C40002038BD00BF14020A006D570000F4
:101C5C007355000038B505460C4601F10C0004F034
:101C6C0064F80A4B98420DD105F10C0205F5907100
:101C7C00207B00F015FC237B0120984000F00AFC2F
:101C8C00002038BD6FF00400FBE700BF0000AD0B77
:101C9C0010B50446436819681A69C1F824255A7DA1
:101CAC001B7D1343C1F86C3503691B681BB1FFF72F
:101CBC00AFFF002803DB204603F0B8FD00B110BDD8
:101CCC000249204603F0DBF9F9E700BF2558000074
:101CDC0021F07F4100F5A870014B43F820107047AC
:101CEC00001001404FF480338340024AC2F8443361
:101CFC00704700BF001001404FF480338340024A0C
:101D0C00C2F84833704700BF00100140014BD3F8B4
:101D1C0004057047001001402DE9F843054689463B
:101D2C009046FFF7E9FF284603F0B7FE4E4603271F
:101D3C0010E0FFF7EBFF0446494603F09DFEB0F5BB
:101D4C00000F26D9284603F0A8FEB8F1000F22D1C7
:101D5C003E19013731462846FFF7BAFF2846FFF7F0
:101D6C00C1FFFFF7D3FF0446C11C304603F084FECD
:101D7C000A4B98420AD9284603F082FE0028D8D193
:101D8C00B8F1000FE4D06FF0150000E00020BDE8C2
:101D9C00F8830020FBE76FF01500F8E7FDFF7F00EC
:101DAC00034B044AC3F80823C3F84823704700BF09
:101DBC000010014003000F0010B5012383406FEAAF
:101DCC00030C0E4ABFF35B8F52E8001F01EA0C0EA6
:101DDC0042E800E4002CF7D1BFF35B8F4FF4803264
:101DEC0082400748C0F80823BFF35F8FBFF36F8FA3
:101DFC000B4214BF0120002010BD00BF940900202D
:101E0C00001001404FF480338340144AD2F804236D
:101E1C00134201D10020704710B5044601238340C2
:101E2C00DB430F49BFF35B8F51E8002F02EA03003D
:101E3C0041E8000CBCF1000FF6D1BFF35B8F22FA26
:101E4C0004F313F0010F03D1204603F019FE18B16F
:101E5C00204603F022FE012010BD00BF00100140FF
:101E6C009009002001B9704701238340114ABFF348
:101E7C005B8F52E800CF4CEA030C42E800C100290A
:101E8C00F7D1BFF35B8F4FF4803383400A4AC2F81B
:101E9C000433BFF35B8F094B1B68BFF35B8FC340ED
:101EAC0013F0010FDFD0064B4FF40032C3F80021C2
:101EBC00D9E700BF940900200010014090090020D0
:101ECC0000E100E038B514461046194603F0F1FD68
:101EDC0002460D490B68E01A1B184C6844F10004CB
:101EEC000B604C60A2F50013B3F5400F09D2074B01
:101EFC001B68190A1B06D41841F10005044BC3E9F1
:101F0C00004501F0EFFD38BDA00600209809002027
:101F1C00A806002038B50D4B1C68250A2406BFF313
:101F2C005F8FFFF7F3FE0346001945F10001B3F58F
:101F3C00801F0AD2064BD3E90023904271EB0303B6
:101F4C0003D210F1807041F1000138BD98090020D6
:101F5C00A80600202DE9F041064614461D469DF8C2
:101F6C0020801046194603F0A4FD0746FFF7D2FF68
:101F7C00A04271EB050319D2201A65EB01011D4B30
:101F8C00984271F100012FD21B4B03EB0613D3E9DE
:101F9C000223AB4208BFA24201D1002018E0424606
:101FAC0039463046FFF7B8FE90B11BE0B8F1000F90
:101FBC001DD10123B340114ABFF35B8F52E8000FD0
:101FCC00184342E800010029F8D1BFF35B8F0020D1
:101FDC00094B320103EB0616C6E9024506999950E6
:101FEC00079B7360BDE8F0816FF01500FAE76FF0A6
:101FFC001500F7E7010080009006002090090020F2
:10200C0030B585B0FFF7CCFE00231E4AC2F8083568
:10201C00002B25DD1B4C0225C4F804531A4B4FF43E
:10202C000032C3F8802100220121112002F031FC82
:10203C00112002F029FC0123A3602360134A1360D2
:10204C00002402940194124B0093124A0023204660
:10205C0003F03FFD2846FFF739F9204605B030BDA7
:10206C000D4A02EB03124FF0FF304FF0FF31C2E983
:10207C0002014FF480329A400249C1F80423013323
:10208C00C6E700BF0010014000E100E09409002009
:10209C00D11E0000FFFF7F00900600202DE9F047C5
:1020AC0082B00446FFF7AEFE10B902B0BDE8F0876F
:1020BC00FFF730FF82460D4603F0FEFC0646154B3B
:1020CC0003EB0413D3E90289C24575EB09050BD266
:1020DC000025304603F0F8FC002DE6D00097424670
:1020EC004B462046A847E0E70A4A230102EB0411BD
:1020FC00D5584F680020D0504FF0FF324FF0FF33CF
:10210C00C1E902232046FFF7F7FD204603F0C5FC8A
:10211C00DFE700BF9006002010B50D4BD3F8043359
:10212C0013F0020F03D10024002C0BDD10BD022193
:10213C00074803F06BFC0028F5D0064A13680133FE
:10214C001360F0E72046FFF7A9FF0134ECE700BF6E
:10215C00001001409809002010B584B0B0F1FF3F89
:10216C0018D001281BDD154B9842A8BF1846044611
:10217C00134B01221A70FFF7CDFE124B1A685B68E5
:10218C00801AB0F5000F0CD20444B4F5000F09D33B
:10219C000A4C07E00A4B00221A70084CEBE70124AA
:1021AC00E6E7064C002012190290019006490091B6
:1021BC0043F1000303F08DFC04B010BDFFFF7F0062
:1021CC00E0090020A0060020D11E000008B5FFF792
:1021DC00A1FE024B1B68C01A08BD00BFA006002060
:1021EC00BFF34F8F0549CA6802F4E062044B1343F6
:1021FC00CB60BFF34F8F00BFFDE700BF00ED00E0E9
:10220C000400FA05024BD3F80034002BFAD07047C7
:10221C0000E0014008B5034BC3F80405FFF7F2FFDB
:10222C0008BD00BF00E0014038B503F06EFC40B1C2
:10223C004FF08053D3F82433C3F304236B4AC2F812
:10224C00403503F074FC10B1694B6A4A5A6703F0CD
:10225C0084FC48B14FF08053D3F84432C3F342337B
:10226C004FF08042C2F83C3503F089FC30B1624A31
:10227C00D2F8FC3023F08073C2F8FC3003F095FCEC
:10228C0040B14FF080430022C3F80C21C3F8102159
:10229C00C3F8382503F09BFC20B14FF08043032298
:1022AC00C3F8A02503F0A9FC60B1544B0522C3F878
:1022BC0010260122C3F888260022C3F818263F22D4
:1022CC00C3F8142603F0AFFC002846D04FF0805220
:1022DC00D2F804144A4BC3F82015D2F80814C3F8EA
:1022EC002415D2F80C14C3F82815D2F81014C3F81E
:1022FC002C15D2F81414C3F83015D2F81814C3F8EE
:10230C003415D2F81C14C3F84015D2F82014C3F8B5
:10231C004415D2F82414C3F84815D2F82814C3F87D
:10232C004C15D2F82C14C3F85015D2F83014C3F84D
:10233C005415D2F83414C3F86015D2F83814C3F815
:10234C006415D2F83C14C3F86815D2F84014C3F8DD
:10235C006C15D2F84424C3F8702503F086FC48B100
:10236C004FF08053D3F8583203F04F034FF08042B4
:10237C00C2F8E43E03F08BFC60B14FF08043D3F81D
:10238C00003413F0010F05D04FF080436FF00102C1
:10239C00C3F8002403F08DFC30B11A4AD2F83C3754
:1023AC0043F48063C2F83C3703F0ABFC4FF01023CE
:1023BC00D3F80032002B06DB4FF01023D3F8043295
:1023CC00002B00DB38BD0120FFF724FF4FF0102459
:1023DC001525C4F80052FFF715FFC4F80452FFF797
:1023EC0011FF0020FFF716FFFFF7FAFE0030014047
:1023FC0000C007400DF0ADBA00ED00E00050004009
:10240C0000C000400010004010B50468CCB1B4FA14
:10241C0084F3C3F11F03DBB201229A4024EA0202C7
:10242C00BFF35B8F50E800CFA44504D140E8002EE9
:10243C00BEF1000FF6D1BFF35B8FE6D10B700248F3
:10244C0010BD0248FCE700BF0000AD0B0200AD0B55
:10245C000368CB4013F0010F15D100B502680123BE
:10246C008B401343BFF35B8F50E800CF944504D1EE
:10247C0040E8003EBEF1000FF6D1BFF35B8FEDD10B
:10248C0002485DF804FB0248704700BF0000AD0B2A
:10249C000400AD0B014BC3F80405704700F001407C
:1024AC00034BA23043F8301003EBC0035A60704763
:1024BC0000F001400D4BD3F8FC1041F08072C3F8D2
:1024CC00FC20A3F55D43186840F001021A605A68BD
:1024DC00074B5B689B1AB3F50A5FF9D3044B186082
:1024EC0003F55D43C3F8FC10704700BF00ED00E03E
:1024FC00001000E070B582B00646C0B1012832D1A0
:10250C0004224FF4807301214FF08040C0F808136F
:10251C00024401211160034400221A601B688DF8EB
:10252C0007108E4208D0002542F210740CE00C22E9
:10253C004FF482730221E7E70DF10705F4E7012060
:10254C0003F0EFFB013C0CD02A4631464FF08040A3
:10255C0003F0EFFB28B1002DF1D09DF80730012BD3
:10256C00EDD0012E01D002B070BD024B00225A7189
:10257C00F9E700BF9C090020064B1B793BB9054BC2
:10258C00186001221A7100225A71034870470348DF
:10259C00704700BF9C0900200000AD0B0C00AD0B78
:1025AC0008B5064B1B680BB103F0E1FB03F0DDFB38
:1025BC004FF08043C3F8180508BD00BF9C090020EC
:1025CC0070B582B018B1012848D002B070BD4FF080
:1025DC008043D3F81824D3F8183403F00303019381
:1025EC0012F4803F13D14FF08043D3F8143413F01E
:1025FC00010F10D103F0B9FB0190019A4FF0804309
:10260C00C3F8182508254FF4827302262AE001A886
:10261C0003F0B6FBF1E74FF08043D3F81C3403F022
:10262C000303019301A803F0ABFB0028E5D01C4B7E
:10263C001B682BB14FF080430222C3F80423C4E77C
:10264C004FF08043D3F80431002BF9D04FF0804386
:10265C000022C3F80421D3F80431B6E700254FF467
:10266C008073012603F18044002222602268B3F5B6
:10267C00827F0BD005F1804501232B60084B1B6832
:10268C003BB14FF08043C3F804639EE7FFF712FFA2
:10269C00F0E72368002BFCD000232360236894E729
:1026AC009C09002010B54FF08043D3F8044308E098
:1026BC001D4B5B792BB91C4B01225A711A4B1B68B1
:1026CC00984784B3B4FA84F0C0F11F000122824011
:1026DC0083009BB203F580739BB2C0B2D2B224EAE2
:1026EC00020403F1804319680029EAD00021196023
:1026FC001B684FF08043C3F80823012AD8D0022A64
:10270C00DCD14FF08043D3F81814D3F8183413F0FD
:10271C00030FD3D14FF080430121C3F81815C3F830
:10272C0004239960CDE710BD9C09002000F01F0226
:10273C0040090CD14FF0A04102F5E07251F8220093
:10274C00044B034043F0020341F822307047002150
:10275C00F2E700BFF0F8FCFF004870475805002076
:10276C002DE9F04184B005460C4616461F46084636
:10277C0003F0F2FB804656B32146284603F03DFC9D
:10278C0028B12146284603F0F8FB002841D1214608
:10279C00284603F001FC10B17378012B39D00123CA
:1027AC008DF80F30002301930096B31C721C0DF1B1
:1027BC000F01204603F071FB2879FFF7CDFF08F1DC
:1027CC00080230F8123043F0030320F81230002FC7
:1027DC0039D02146284603F010FC002835D13E782C
:1027EC002B6806F5A272002143F822102879FFF716
:1027FC00B3FF08F1080230F8123023F02003DB0499
:10280C00DB0C20F812307B782BB9114804B0BDE8F2
:10281C00F0811048FAE7BA780092224631462868CF
:10282C0003F0E1FA2879FFF797FF024608F1080058
:10283C0032F810307603B6B2334343F0200322F85B
:10284C0010300348E2E70248E0E70248DEE700BF49
:10285C000000AD0B0400AD0B70B506460D461446DA
:10286C0003F08BFB68B13079FFF776FF06462846FC
:10287C0003F072FB083036F810305B0B2370024803
:10288C0070BD0248FCE700BF0000AD0B0400AD0BAF
:10289C002DE9F04182B00546884616461F4603F0E6
:1028AC0035FDAEB33A463146284603F002FC041E11
:1028BC0020DB2879FFF750FF40F834602879FFF7C8
:1028CC004BFF00EBC40047602879FFF745FF054636
:1028DC00404603F041FB083035F81030E4B2640296
:1028EC00A4B2234343F4807325F81030094802B096
:1028FC00BDE8F0812879FFF72FFF0DF10701583063
:10290C00FFF782FD034B9842F1D19DF80740D0E7C9
:10291C000048ECE70000AD0B2DE9F04385B0044610
:10292C000D461746084603F017FB0646D7F80080FD
:10293C00B8F1000F28D02946204603F04DFB0028A3
:10294C004FD100238DF80E308DF80F30019300938A
:10295C0043460DF10F020DF10E01284603F09DFACE
:10296C002079FFF7F9FE06F1080830F8183023F04B
:10297C00020320F818302079FFF7EEFE30F81830FB
:10298C0043F0010320F818307B68F3B193F8008012
:10299C00D3F804902946204603F00FFB18B3B9F185
:1029AC00000F65D12079FFF7D7FE083630F81630C6
:1029BC0023F01C0320F816302079FFF7CDFE30F8F9
:1029CC00163043EA880320F81630BA68002A53D030
:1029DC005368126829462046FFF75AFF05B0BDE838
:1029EC00F0832648FAE72079FFF7B6FE06F10802D5
:1029FC0030F8123023F02003DB04DB0C20F812300B
:102A0C00B9F1000FCED0B8F1030F33D87B685B68F7
:102A1C0093F80090B8F1000F06D1236809F5A2795C
:102A2C00002243F82920BDE7404603F0EEFA0346A6
:102A3C00216809F5A27C51F82C2022F0030241F800
:102A4C002C202A464946206803F0B4F92079FFF778
:102A5C0083FE06F1080230F812304FEA49391FFAAA
:102A6C0089F943EA090343F0200320F8123099E76F
:102A7C000248B3E70148B1E70148AFE70400AD0BEA
:102A8C000000AD0B38B505460C4603F067FA08B9E3
:102A9C00074838BD2146284603F0E8FA2146284667
:102AAC0003F05FFC2046FFF741FE0248F1E700BF50
:102ABC000400AD0B0000AD0B70B582B005460E46A0
:102ACC000079FFF749FE90F8603013B10B4802B063
:102ADC0070BD044640220021103003F0D1FF236D5D
:102AEC000093002332464FF00041286803F063FC4A
:102AFC00012384F86030A3650148E8E70C00AD0BB6
:102B0C000000AD0B08B50249024803F0FAFC08BD01
:102B1C00580500200060004008B501460148FFF749
:102B2C0073FC08BDBC05002010B5154CA822002173
:102B3C00204603F0A5FF032323616361114AA261C0
:102B4C00114BE3614FF4806323620023A362636241
:102B5C00E36222660D4A62661022A2662367E36670
:102B6C006367BFF35F8F06E0C3F10F020849895C0E
:102B7C00034AD15401330F2BF6D9BFF35F8F10BD2D
:102B8C0010040020B86F000010000020000000208E
:102B9C00C46F000008B5BFF35F8F00230F2B0AD85A
:102BAC000A4AD25CD2B2C3F10F010948415C8A4295
:102BBC0006D10133F2E70023BFF35F8F13B908BDD1
:102BCC000123F9E7FFF7B0FFF9E700BF100400207D
:102BDC00C46F0000034B00E01433034A9342FBD351
:102BEC00704700BFD86B0000146C000038B5EFF3D1
:102BFC001185202383F31288BFF36F8F054B9C68DC
:102C0C0003F0ECFC85F31188BFF36F8F2046FDF7C2
:102C1C00AFFF38BDA409002038B505460A4B53F860
:102C2C00204002E02368984708346B1C064A52F88F
:102C3C002330A34206D96368002BF3D0204603F05F
:102C4C00D0FCF1E738BD00BFE86F000010B586B0CE
:102C5C00B023114C03FB004400EB400C00EB800054
:102C6C000E4B03EB80030E4A0592012204920F22B5
:102C7C00039200220292019200930A4B4FF4A0722D
:102C8C00094901EBCC11204600F08EF9637B23F04F
:102C9C000403637306B010BDB0060020A409002025
:102CAC00D86F0000316600004012002008B553EACE
:102CBC00020102D100F0C6FC08BD0249183000F038
:102CCC008BFEF9E75968000010B586B0184C14E07B
:102CDC00636A0593236A0493E3690393A3690293DC
:102CEC006369019323690093E368A26861682068B3
:102CFC0000F05AF923685C6530340E4B9C42E7D3E4
:102D0C0000F0B0FB0A4C00E030340A4B9C420BD272
:102D1C00A26AE36AB3F1FF3F08BFB2F1FF3FF3D001
:102D2C002068FFF7C3FFEFE700F0B4FB06B010BD5F
:102D3C004C6D00004C6D000008B50B4B01221A7055
:102D4C000320FFF769FFFDF7B5FC03F06AFC0420D4
:102D5C00FFF762FFFFF7B8FFFDF752FB034A137B47
:102D6C0023F00103137308BDE10900206007002064
:102D7C0008B50146014A0248FDF7ECFF452D00005D
:102D8C006007002008B50348034A121A002103F01B
:102D9C0040FC08BDD0050020E409002010B5044615
:102DAC00FFF754FFB0230B4903FB04110A4A04EB51
:102DBC00840302EB8303D9601C7404EB4411074BAE
:102DCC0003EB811303F5046304EB840402EB84022C
:102DDC00536010BDB0060020A4090020000A00209A
:102DEC0070B586B000F08EFB104D114B5D61114B30
:102DFC0005930123049300240394029401940094FA
:102E0C000D4B4FF480620D49284600F0CDF8064674
:102E1C006B7B23F004036B73284603F0AFFC204656
:102E2C00FFF7BCFF304606B070BD00BF6007002046
:102E3C00A4090020E06F0000452D0000C013002005
:102E4C0008B50020FFF7E8FE1D4B83F308881D4CE6
:102E5C00636943F400736361E02384F82230002536
:102E6C00E57725766576A57684F82050636A43F479
:102E7C00E023636284F82350FDF7F6FDFDF78AFF2B
:102E8C004FF0FF33A362E362FEF73AF8FDF7B2FFAF
:102E9C000D4B01245C731C73C3F89450C3F8985009
:102EAC00C3F8A050094A9360FFF794FE2046FFF741
:102EBC00B3FE0220FFF7B0FEFFF792FFFFF758FFBB
:102ECC004012002000ED00E010080020A4090020B2
:102EDC00F8B50446EFF31187202383F31288BFF370
:102EEC006F8F0568A84212D02E1E18BF012685B917
:102EFC0006BBA368E268934224D001221344A3606A
:102F0C0000230BBB87F31188BFF36F8FF8BD00252F
:102F1C00EAE76A682B6813605A6000232B606B60C9
:102F2C006A7B22F002026A73AB6005F1180003F0B1
:102F3C0025FDDDE70023C5F8AC30284603F01EFC68
:102F4C000123DEE70022D9E73946024800F05EFA99
:102F5C00DCE700BFC809002010B582B0EFF3118187
:102F6C00202484F31288BFF36F8F846844B1013C32
:102F7C00846081F31188BFF36F8F002002B010BD05
:102F8C0053EA020406D0009201930246054800F071
:102F9C0021FAF3E781F31188BFF36F8F6FF00F0005
:102FAC00ECE700BFC80900202DE9F04F85B00446BE
:102FBC000F4615461E46DDF838A0DDF83C90DDF8CE
:102FCC004080DDF84CB000F158038365C365129B5B
:102FDC000422119903F05FFB2A463946204603F080
:102FEC002EFB0546CDF80880CDF80490CDF800A056
:102FFC003346024639462046FDF766FE00236365DC
:10300C002666C4F864A0C4F86890C4F86C80EFF32A
:10301C001182202383F31288BFF36F8F124B196A2E
:10302C0021671C6282F31188BFF36F8FBBF1000F15
:10303C0013D01F22594604F1740003F029FD00231C
:10304C0084F89330084B9B685BB1D3F8A030C4F87C
:10305C00A030284605B0BDE8F08F002384F874300A
:10306C00F0E7C4F8A030F4E7A40900200A4A9368FA
:10307C00C3F8A8006FF00A01C3F8AC1007494B68FD
:10308C0043F080534B60002383F31188BFF36F8FA1
:10309C009368D3F8AC007047A409002000ED00E061
:1030AC00427B90F90D30002B04DB12F01F0F01D185
:1030BC00816901B1704710B562F07F024273264AF4
:1030CC0052F8183F93420ED10B460CE05A684260FE
:1030DC000360106058601FE01A461F4CE469A2425E
:1030EC0010D01B6883B17BB190F90EC093F90E2000
:1030FC009445F1D0A2EB0C02002AE7DC1A46002B17
:10310C00EBD1EFE70B46EDE7134BDA6903F118014E
:10311C00016042601060D8610F4B53F8184F9C420D
:10312C000ED06CB10C4B9B685A7B12F01F0F0AD15E
:10313C00DA897F2A07D9A2692AB9074A536109E0BB
:10314C00054BDC68EEE7A34202D0204600F08AFB78
:10315C00014B5C6110BD00BFA409002010B5437B7E
:10316C0090F90D20002A14DB154B9A6853F8184F70
:10317C009C4219D0C4B1824219D0537B13F01F0F5B
:10318C0015D1D3897F2B12D9A36983B90C4B5A6102
:10319C0014E003F07F0343734268036813605A60C2
:1031AC00002303604360DFE7054BDC68E3E7A242E2
:1031BC0002D0204600F056FB014B5C6110BD00BFF5
:1031CC00A40900202DE9F84305460C46454B9E68A2
:1031DC00737B13F0600F28D013F0200F2AD0082730
:1031EC001F4222D13B43737313F0800F24D1082F5D
:1031FC002DD04FF000093B4B53F8188F98454BD00E
:10320C00B8F1000F48D0374B9B68434502D040467D
:10321C0000F028FB334BC3F81480102F05D0304638
:10322C0000F080FBB9F1000F3AD184F31188BFF3A1
:10323C006F8F50E01027D3E703F07F03737372682E
:10324C00336813605A60002333607360CFE7B36850
:10325C005BB17268336813605A600023336073602B
:10326C00727B22F002027273B360304603F052FAA2
:10327C0006F1580003F053FA1A4B9B689E4202D099
:10328C004FF00009B7E7EFF3058313B94FF00009CE
:10329C00B1E74FF00109AEE7124BD3F80C80B2E75F
:1032AC00114B01225A731A730022C3F89420C3F8ED
:1032BC009820C3F8A0200B4A9360B6E7EFF3118473
:1032CC00202383F31288BFF36F8F03F0B6F984F3D6
:1032DC001188BFF36F8F6B7B13F0600FEED1BDE8DD
:1032EC00F88300BFA409002010080020B3F1FF3FB1
:1032FC0008BFB2F1FF3F00D1704708B50249183042
:10330C0000F06AFB08BD00BF5968000010B5437B94
:10331C0090F90D20002A0ADB437B63F07F03437393
:10332C002B4A52F8183F934219D1002317E003F0AF
:10333C007F0343734268036813605A600023036081
:10334C004360E9E75A6842600360106058601EE011
:10335C001A461F49C9698A420FD01B687BB173B1E9
:10336C0090F90E1093F90E209142F1D0521A002AC6
:10337C00E8DC1A46002BECD1F0E70023EEE7144B07
:10338C00DA6903F11801016042601060D861104BDA
:10339C009A6853F8184F9C420ED06CB182420ED0F2
:1033AC00537B13F01F0F0AD1D3897F2B07D9A36945
:1033BC002BB9074B5A6109E0054BDC68EEE7A242DA
:1033CC0002D0204600F04EFA014B5C6110BD00BFEC
:1033DC00A409002010B50C4611460A4882680A4B15
:1033EC001A60EFF31183202383F31288BFF36F8FDE
:1033FC00DDE90223806803F0B5F92046FFF736FEBD
:10340C0010BD00BFA4090020C809002008B50B4658
:10341C0059B9EFF3058242B9064A50699268904255
:10342C0003D00846FFF722FE03E083F31188BFF3B5
:10343C006F8F08BDA409002008B5034650B9EFF3FF
:10344C0005823AB9064A51699268914202D0FFF757
:10345C000DFE03E083F31188BFF36F8F08BD00BF2F
:10346C00A40900200023EFF31181202282F312889B
:10347C00BFF36F8F09E0064B9A68D37B013BD37384
:10348C0081F31188BFF36F8F0123002BF3D07047AA
:10349C00A409002038B50023EFF31185202282F314
:1034AC001288BFF36F8F0EE0154BDC6817E0A24259
:1034BC0002D0204600F0D6F9114B5C6185F31188DF
:1034CC00BFF36F8F0123BBB90D4B9A68D17B0131D0
:1034DC00D17353F8184F9C42E6D0002CE4D0537BA8
:1034EC0013F01F0FE3D1D3897F2BE0D9A369002BF5
:1034FC00DDD1034B5A61E1E703F0D3F938BD00BFCE
:10350C00A409002008B5024803F0D6F908BD00BF95
:10351C00B809002038B5EFF31184202383F3128807
:10352C00BFF36F8F224B9A68DB699A4205D0136800
:10353C00516812680A60516006E00023F8E71C4AE3
:10354C00D269934212D01B6893B1194A906890F9D2
:10355C000E1093F90E209142F1D0521A002AEEDD92
:10356C005A6842600360106058600AE00023EBE781
:10357C000F4B9A68D96903F11800106051600A600A
:10358C00DA610B4B53F8185F9D420DD065B1084BB7
:10359C009B689D4202D0284600F064F9044B5D61A3
:1035AC002046FFF763FD38BD014BDD68EFE700BF38
:1035BC00A40900202DE9F04150EA010333D0044660
:1035CC000D466FF001031B1A4FF0FF3262EB010244
:1035DC00012B72F100022ADB6FF00106361AEFF3B1
:1035EC001188202383F31288BFF36F8F124FB868B2
:1035FC00124B1860FFF7B2FDB86822462B461049F3
:10360C00183000F0E9F9BA68537B43F004035373A4
:10361C004046FFF72BFD03F0D9F9301A002800DCE7
:10362C000020BDE8F081FFF775FF0020F9E703F0FB
:10363C00CDF90619D3E700BFA4090020C809002062
:10364C005968000038B50446183003F097F9EFF3C9
:10365C001185202383F31288BFF36F8F637B13F0E4
:10366C00040F04D185F31188BFF36F8F38BD23F09D
:10367C00040363732046FFF713FDEFF3058323B1B7
:10368C0085F31188BFF36F8FF0E729460148FFF7E8
:10369C00BDFEEBE7C8090020014B9868704700BFDE
:1036AC00A40900202DE9F041EFF31186202383F3C8
:1036BC001288BFF36F8F037B13F0010F15D10446F3
:1036CC00457B15F0080F1ED1B04600F1580702F0EB
:1036DC00EDFF30B345F020056573EFF30583BBB107
:1036EC0031462046FFF76EFD0BE086F31188BFF3E1
:1036FC006F8F002383F31188BFF36F8F0423184659
:10370C0002DFBDE8F08186F31188BFF36F8FF8E715
:10371C003946374B986802F0CBFF3046FFF7A6FCD2
:10372C00EFE745F00803637313F0800F33D1A36800
:10373C005BB16268236813605A6000232360636086
:10374C00627B22F002026273A36004F1180003F0A2
:10375C0015F9384602F0E3FF254B9A68944227D0BE
:10376C000027234B53F8185F9D4228D03DB3AA4243
:10377C0002D0284600F076F81D4B5D61204600F023
:10378C00D1F8FFB91A4B9B689C4229D088F3118859
:10379C00BFF36F8FB5E705F07F0545F0080565733E
:1037AC006268236813605A60002323606360BEE77D
:1037BC00EFF305830BB90027D3E70127D1E70C4BB7
:1037CC00DD68D4E70B4B01225A731A730022C3F83D
:1037DC009420C3F89820C3F8A020054A9360D1E741
:1037EC00EFF30583002BD1D13046FFF73FFC88E780
:1037FC00A409002010080020044BC01AC010044B70
:10380C0003FB00F0034B01221A547047C008002040
:10381C00ABAAAAAACC090020C3897F2B11D80E4BC6
:10382C001B687BB190F90E200C4B1B689A420CDB89
:10383C00437B13F01F0F0AD1094B984209D0012387
:10384C0000E0002303F0010070470023FAE7002397
:10385C00F8E70023F6E700BFD4090020D0090020C8
:10386C00B006002070B505460D4B1E7C06EB4603DA
:10387C000C4C04EBC304204603F080F80A4B0022E6
:10388C009A552846FFF7C8FF00B970BD074B1A6858
:10389C00013AD3170649204600F09EF8F5E700BF21
:1038AC00A4090020C0080020CC090020D409002065
:1038BC000538000038B5EFF31185202383F3128807
:1038CC00BFF36F8F144B9C68144B1B68A34217D02B
:1038DC00124B00221A60104B1B7C114AD35C53B163
:1038EC002046FFF799FF30B1637B13F01F0F0FD009
:1038FC002046FFF7B7FF85F31188BFF36F8F38BDF4
:10390C002046FFF7AFFF85F31188BFF36F8FF6E703
:10391C002046FFF7FBFCEBE7A4090020C8090020B8
:10392C00CC090020EFF31181202383F31288BFF31D
:10393C006F8F0A4B1B6A834204D11A6F074B1A62B2
:10394C0007E0134613B11A6F8242FAD10BB1026F22
:10395C001A6781F31188BFF36F8F7047A409002099
:10396C0008B50648064A121A064902F056FE0648E1
:10397C00064A121A064902F050FE08BDC004002087
:10398C00CE05002018700000B8040020C0040020F0
:10399C0010700000034B1868984200D0704700204C
:1039AC00FCE700BFC005002030B1044A52689042C9
:1039BC0001D0006870470020704700BFC005002090
:1039CC0008B5044B1B680BB1002008BDFEF7FEFBCD
:1039DC00FBE700BFD8090020B3F1FF3F08BFB2F1ED
:1039EC00FF3F77D02DE9F047044692461D46816093
:1039FC000023EFF31187202282F31288BFF36F8F1D
:103A0C0026E01AF1010845F10009FFF7D9FF18EB80
:103A1C00000349EBE070236160613BE0521A66EBF6
:103A2C000303026143614368636020601C6044606F
:103A3C0005E0294B5A682360626014605C60FFF7F4
:103A4C00A9FF84423AD087F31188BFF36F8F01230B
:103A5C00002B3DD153466FF00101B1EB0A014FF041
:103A6C00FF3060EB0502002ACBDB1C4A1168526860
:103A7C005B1842EB05026FF00101C91A60EB0203FF
:103A8C0008461A46012973F1000301DA01200022CD
:103A9C0020616261FFF77EFF0028CAD00269466987
:103AAC0021696369914273EB060EB7DB891A63EBEC
:103ABC00060321616361FFF777FFEDE7084B1B6895
:103ACC00002BC0D102F03DFF0021FEF745FBBAE709
:103ADC00BDE8F087704700BFC0050020D808002063
:103AEC00D809002070B5EFF31186202383F31288D8
:103AFC00BFF36F8F2A4B1860FFF74CFF044623E08F
:103B0C00284A136851685B1941EBE57113605160E9
:103B1C0000220023C4E90423204602F0FBFE86F3B6
:103B2C001188BFF36F8FA36820469847EFF3118677
:103B3C00202383F31288BFF36F8F194A13685B1B22
:103B4C001360FFF727FF04463CB125696169144BEC
:103B5C001A68D317AA428B41D2DA44B1236962693D
:103B6C000F4909685B1A62EBE172236162610D4ACD
:103B7C000B4D2868136851681B1841EBE0711360FA
:103B8C00516000242C6002F0DCFE2146FEF7E4FAC2
:103B9C0086F31188BFF36F8FFFF78CFE70BD00BFEB
:103BAC00D8090020D808002010B50022EFF31184AA
:103BBC00202383F31288BFF36F8F134611460CE05A
:103BCC00FFF7FEFE074A13685168C31841EBE0711A
:103BDC0084F31188BFF36F8F0122002AF0D01846AE
:103BEC0010BD00BFD8080020F8B5EFF311832022D8
:103BFC0082F31288BFF36F8F026822B183F31188AE
:103C0C00BFF36F8FF8BD04461D46826AC36A52EA41
:103C1C00030105D0B3F1FF3F08BFB2F1FF3F27D13D
:103C2C00236B01332363236A6BB185F31188BFF3D4
:103C3C006F8F236A20469847EFF31185202383F377
:103C4C001288BFF36F8F04F11803A469A3423FD00D
:103C5C00002C3DD0204602F0ACFD0023C4F8AC3063
:103C6C0085F31188BFF36F8F204602F087FDC9E7FB
:103C7C0016461F46012A73F1000301DA01260027BC
:103C8C00013E47F1FF3702F0A5FE013041F1000182
:103C9C00801947EB0101012871F1000108DA6FF07E
:103CAC0001024FF0FF330D492046FFF795FEB7E7B1
:103CBC0002F090FE013041F10001801947EB010345
:103CCC006FF00102121A4FF0FF3161EB0303EAE7C8
:103CDC0085F31188BFF36F8F94E700BFF53B0000AD
:103CEC00F8B51D46EFF31187202383F31288BFF339
:103CFC006F8FB5F1FF3F08BFB2F1FF3F1FD00646F3
:103D0C00144629466FF00102121B4FF0FF3262EB92
:103D1C000502002A18DB304602F030FEDDE90623EE
:103D2C00C6E90A230023336322462B460B4930464F
:103D3C00FFF752FE87F31188BFF36F8FF8BD87F33F
:103D4C001188BFF36F8FF9E7012C71F1000101DAD3
:103D5C0001240025013C45F1FF35DCE7F53B000073
:103D6C002DE9F04F8DB043680293837815469A077E
:103D7C00804640F10D8100240E78002E00F00A815F
:103D8C00252E0BD04B1C03930134029B414630462D
:103D9C0098470028C0F2F6800399EDE74E788B1C0B
:103DAC00252E0393F0D00027B946BB46BBF11F0F5D
:103DBC0038D8A6F12003102B0AD8DFE803F02A0923
:103DCC0009300909092109090928092D09091F00C8
:103DDC00A6F13003092B33D92A2E37D11BF0400F13
:103DEC0055F8043B40F08280002BA7BF4BF0200B12
:103DFC009946C3F100094BF0280B01E04BF0010B85
:103E0C00039B13F8016B0393002ECFD130E04BF0E2
:103E1C00020B4BF0040BF3E74BF0080BF0E74BF005
:103E2C00100BEDE7BBF17F0F19D8A6F13003092B6E
:103E3C00D2D81BF0400F03D00A2101FB0737DFE774
:103E4C000A2101FB09394BF0200BD9E72E2E06D1A4
:103E5C001BF0400F40F09E804BF0400BD0E76C2ED7
:103E6C0031D02BD8682E36D06A2E3CD04C2E3AD07E
:103E7C00002F46F02003B8BF2BF04002A3F16501E0
:103E8C00BCBF1FFA82FB0027022901D9612B2FD15D
:103E9C00073525F00705DFF8ACA2083507271BF01E
:103EAC00080F66D00AEB070B56465E4563D1A4EBB0
:103EBC000A0A06EB0A02A9EB07096FE1742E9FD0E0
:103ECC007A2E9DD0D4E71BF0800F18BF4BF4007BEB
:103EDC004BF0800B94E71BF4807F18BF4BF4007BF6
:103EEC004BF4807B8CE74BF4207B89E71F4687E7FC
:103EFC00A6F16301122900F2F080DFE811F0130043
:103F0C004F00EE00EE00EE00EE004F00EE00EE0073
:103F1C00EE00EE00EE00FE00E900EE00EE001B00ED
:103F2C00EE00AF0055F8043B8DF8183001270DF169
:103F3C00180AB4E755F804AB834BBAF1000F08BF6D
:103F4C009A461BF0400F14BF39464FF0FF315046D4
:103F5C0002F0AEFD0746A2E7029B4146202098479F
:103F6C0000280FDB013EB742F6D34C44A41BB146EC
:103F7C0098E74E46F7E716F8010B029B4146984727
:103F8C00002892DA98F8023043F0040388F80230E3
:103F9C004FF0FF3420460DB0BDE8F08F1BF0800FC2
:103FAC0034D01BF4007F2CD0073525F00705AA462A
:103FBC0069685AF8080B2BF010050029ADB237DAF6
:103FCC00404261EB410145F480650DF1180B0A2369
:103FDC005A4602F079FDA0EB0B0301936B0662D5F8
:103FEC00019B25F001019F4289B240F3A180002E74
:103FFC0000F0998015F0100240F09C80BB460D46F5
:10400C0023E0AA465AF8040BC117D4E7AA461BF4BE
:10401C00807F5AF8041B01D10846F5E71BF4007F9A
:10402C0015BF48B208B241F3C01141F3C031C2E729
:10403C0050EA0103C9D11BF0400FC6D0002FC4D1E8
:10404C002BF0110295B2BB46019740F2064115EADE
:10405C0001021CBF0BF1010B00222CE02BF0100213
:10406C001FFA82FB0A231BF0800C49D01BF4007151
:10407C001DBF073525F00705AA46AA461ABF5AF8F0
:10408C00080B69685AF8040B50EA010545D12BF06E
:10409C0016051BF0400FADB242D0002F40D12BF0D3
:1040AC00170295B2019715F0100248D0019B002E13
:1040BC0042D103F1010B29075AD4EB0706D5D94598
:1040CC006FDD0199A9EB0B035F18CB465B4649E00A
:1040DC004BF0100B10237826C5E7782B04D1C6F1D2
:1040EC00780343F01003BEE7029B41462520984716
:1040FC000028FFF647AF023447E608230026B2E754
:10410C00AA461BF480715AF8040BBDD01BF4007145
:10411C001ABFC0B2614680B2B6E72BF0060295B268
:10412C000DF1180B54E725F01105ADB2BB468CE729
:10413C000D46B8E73B460D4603F1020BBBE7DDF835
:10414C0004B082E70770000000700000CDE9043273
:10415C004146029B202098470028FFF613AF049B92
:10416C00059A01339945F1DCA4EB0B01CC189B4665
:10417C000AB3029B4146302098470028FFF602AF55
:10418C008EB901342744019B391B994224DC1D460E
:10419C005DBB019AA9EB0B09224455461446914488
:1041AC0035E0019F92E7023441463046029B984726
:1041BC000028E7DAE6E640F206410D42E2D015F0BF
:1041CC00020F14BF2B20202015F4806F04F1010482
:1041DC00414618BF2D20E9E7029B41463020984705
:1041EC00002804F10104CEDACCE606AB013D4146D1
:1041FC00585D029B98470028CADAC3E6029B4146E9
:10420C0020209847002804F10104FFF6BBAEA9EB6F
:10421C000403002BF2DCBFE5704738B51346856804
:10422C00046912F4801F07D012F4402F04D012F04E
:10423C00010F01D082F4402323F4801213F0010FFC
:10424C000AD023684FF0010C0CFA01FC43EA0C0372
:10425C0023602B68984738BD23684FF0010C0CFA8B
:10426C0001FC23EA0C032360F3E708B503468C46F4
:10427C0000681979DA8842EA0C02FFF7CEFF08BD14
:10428C0008B5034600681B790121994083685B6976
:10429C00984708BD08B520EAE070C117C90341EA88
:1042AC005041C00340F2E733C0184FF47A724FF01C
:1042BC00000341F10001FBF70BFF02F001FB08BD0D
:1042CC0000EBC1018368B3F5004F0AD322B14B68F0
:1042DC0043F001034B6070474B6823F001034B60C4
:1042EC00704722B14B8843F001034B8070474B88D9
:1042FC0023F001034B807047131D50F82330DBB9BA
:10430C00C3684FF0010C0CFA02FC43EA0C03C360C7
:10431C00043240F8221000EBC1038268B2F5004F62
:10432C0006D399608268B2F5004F03D3D960704709
:10433C009980F7E7D980704710B500EBC30C8468FF
:10434C00B4F5004F1CD3DCF8082000EBC10EB4F51B
:10435C00004F18D3CEF808208468B4F5004F15D35D
:10436C00CEF80C3000EBC2028368B3F5004F10D3CB
:10437C00D1608368B3F5004F0DD3CCF8081010BD95
:10438C00BCF80420E1E7AEF80420E5E7AEF806300F
:10439C00E8E7D180EDE7ACF80410F0E708B58368E6
:1043AC00B3F5004F07D300EBC10252685208012A43
:1043BC0002D0002200E00022A2B900EBC102B3F54A
:1043CC00004F10D352685208B3F5004F0DD3082399
:1043DC000833A2EBD3020132B2FA82F2C2F11F020D
:1043EC00FFF78AFF08BD5288EDE70423F0E7F8B524
:1043FC00B2F5802F23D30823D21ACC1D24F0070446
:10440C0001EB020C2CF0070CACEB040C4FEADC01BA
:10441C000460A1600023E360BCF5802F11D3082356
:10442C000833A1EBD3030133B3FA83F3C3F1200EAA
:10443C00C3F124039B00DE1DF508002308E00423D0
:10444C00DAE70423ECE71A1D002044F822000133BC
:10445C007345F8DB6B00BCF5802F32D36360BCF581
:10446C00802F30D300232360BCF5802F2ED36368BC
:10447C0043F0010363604A1B570026F00703E01862
:10448C00BCF5802F27D34760A068B0F5004F24D32C
:10449C00E5502CF00703A444A068B0F5004F1ED3E0
:1044AC000020CCF80400A068B0F5004F1BD3E250FC
:1044BC0001222046FFF704FF29462046FFF76EFF36
:1044CC00F8BD6380CBE700232380CDE7638843F0FE
:1044DC0001036380CFE74780D6E7E552D9E7002098
:1044EC00ACF80200DFE7E252E2E7002070470FB4BD
:1044FC0000B583B004A951F8040B0191FBF7EEFF52
:10450C0003B05DF804EB04B0704701F00701038BB6
:10451C0023F007030B43038370472DE9F041064654
:10452C000F469046816821B10C683CB131B90C46FC
:10453C0004E00C4602E0234621461C4669B14D6856
:10454C0043463A463046A847002CF4D02368002B4B
:10455C00F2D0002CF0D12346EEE7BDE8F081038BBE
:10456C0013F0070303D102680AB103207047022B32
:10457C0003D0012B06D000207047428B002AF8D1C3
:10458C000420704703680BB105207047002070476A
:10459C0010B504468C46038B002A07DB03F0070397
:1045AC005A1F012A0ED9042B36D010BDD0E90001B8
:1045BC008CE8030000232360636001212046FFF791
:1045CC00A4FFF2E7D0E900018CE80300002222608E
:1045DC006260062B1BD1DCF8003053B1628B0132C8
:1045EC0062831A461B68002BF7D0002AF5D11346BC
:1045FC00F3E702212046FFF788FF2046FFF7AFFFC5
:10460C000028D2D0238B43F020032383CDE7002155
:10461C002046FFF77AFFF0E70021FFF776FF2046F0
:10462C00FFF79DFF0028C0D0238B43F0200323838A
:10463C00BBE750B110B50C4651B1081D00F0C2F8E3
:10464C0010B9A368032B06D810BD6FF01500704786
:10465C006FF01500F8E76FF01500F5E72DE9F04164
:10466C0007460C4616461D461946201D00F0C1F89B
:10467C0028B180462B46324621463846C047BDE815
:10468C00F0812DE9F04180460C4617461E4604E0A9
:10469C0033463A464046FFF7E1FF216831B10D68D9
:1046AC00256063688B42F3D16560F1E7BDE8F0816A
:1046BC0008B5EFF311824FF0200C8CF31288BFF386
:1046CC006F8F41610121FBF739FF08BD034670B1C3
:1046DC0081B10A688AB14A6892B1002018605860AA
:1046EC009860D860186158619861196170476FF0D3
:1046FC00150070476FF0150070476FF0150070478C
:10470C006FF01500704770B505460E46FFF791FF28
:10471C00041E2EDBEFF31182202383F31288BFF3E8
:10472C006F8FB5F818C00CF0070C6B8B4FF6FF7140
:10473C008B422CD06446BCF1020F08D0BCF1060FA2
:10474C0019D8DFE80CF01E1818181E2A1E000133A9
:10475C006B8301230021084628B100203060686873
:10476C0008B306606E6009BB82F31188BFF36F8FCC
:10477C000BBB204670BD6FF004040023194618468D
:10478C00EAE7BCFA8CF1490900230120E4E76FF059
:10479C000A04002319461846DEE76FF0850400234F
:1047AC0019461846D8E76E602E60DCE702212846D1
:1047BC00FBF7C4FEDDE70023624631462846FFF7CF
:1047CC004DFFD6E7024658B1436803F00303012BB3
:1047DC0003D0032B07D1036843B1002090607047CE
:1047EC006FF0150070476FF0150070476FF01500F3
:1047FC0070470346426802F003028160032A03D12A
:10480C00006800225A6070470020FAE7704708B52C
:10481C00012802D0FEF7EAF908BDEFF30583F9E7AA
:10482C0008B501460068FFF7F2FF08BD08B5FBF7B5
:10483C004DFFFBF777FF08BD0020704700230B707E
:10484C00704708B500231370CB1E092B1AD8DFE86C
:10485C0003F005090D111919191919141146FCF752
:10486C0075F810E00021FCF707F80CE00021FBF7CD
:10487C006DFF08E0FBF7B0FF05E01146FFF7DEFF28
:10488C00002000E0002008BD08B540B2FCF7D0F9CC
:10489C0008BD08B5013140B2FCF7D8F908BD08B520
:1048AC0000210120FFF7B3FF08BD61B662B680F3AB
:1048BC001188BFF36F8F704772B6002383F3118892
:1048CC00BFF36F8FBFF34F8F30BF62B6BFF36F8FE5
:1048DC00704772B6002383F31188BFF36F8FBFF359
:1048EC004F8F20BF80F31188BFF36F8F62B6704774
:1048FC0043685A1E134206D11F2B06D903681A426D
:10490C0005D0002070470020704700207047012020
:10491C00704700B585B00B6801934B688A68202BF3
:10492C0012D9B3F1004F11D8013BB3FA83F3C3F1A1
:10493C001F035B0003F03E031343039301A9FCF731
:10494C008DFA05B05DF804FB0823F5E73E23F3E789
:10495C002DE9F84380460F4699461646002509E096
:10496C002146F0B2FFF7D5FF064610F1160F14D012
:10497C0001360135BD4210DA05EB450408EB840421
:10498C006268002AF5D0B9F1000FE9D02046FFF794
:10499C00AFFF0028E4D16FF015063046BDE8F88370
:1049AC00F0B585B0054603A8FBF77EFE064600244D
:1049BC0024E0B3F5801F20D1576809589368202B49
:1049CC0064D9B3F1004F63D8013BB3FA83F3C3F15D
:1049DC001F035B0003F03E0343F0885343F4302382
:1049EC0000970191029369462878FCF737FA002862
:1049FC00C0F2A8802B7801332B700134B44280F0C4
:104A0C00A4802001039901EB0412D3681B0D1B0534
:104A1C00B3F5000F5ED01DD8B3F5001F3AD0B3F537
:104A2C00800FC6D1576809589368202B4ED9B3F123
:104A3C00004F4DD8013BB3FA83F3C3F11F035B0066
:104A4C0003F03E0343F0E06343F40033009701911D
:104A5C000293C8E7B3F1807F56D0B3F1007FCCD17D
:104A6C00576809589368202B68D9B3F1004F67D861
:104A7C00013BB3FA83F3C3F11F035B0003F03E0366
:104A8C0043F48023009701910293ACE70823A3E73A
:104A9C003E23A1E7576809589368202B12D9B3F12C
:104AAC00004F11D8013BB3FA83F3C3F11F035B0032
:104ABC0003F03E0343F0885343F400230097019125
:104ACC00029390E70823F5E73E23F3E70823B9E7C1
:104ADC003E23B7E7576809589368202B10D9B3F1D8
:104AEC00004F0FD8013BB3FA83F3C3F11F035B00F4
:104AFC0003F03E0343F0827300970191029372E737
:104B0C000823F7E73E23F5E7576809589368202BED
:104B1C0010D9B3F1004F0FD8013BB3FA83F3C3F1B3
:104B2C001F035B0003F03E0343F088730097019171
:104B3C00029358E70823F7E73E23F5E708239FE79E
:104B4C003E239DE76FF0150000E0002005B0F0BD9E
:104B5C0008B5FCF797F908BD08B5FCF79DF908BD39
:104B6C0008B5FCF70DFA002008BD034619B1012960
:104B7C000CD000207047D3F81804C0F300407AB171
:104B8C00D3F8183403F0030313607047D3F80C0404
:104B9C00C0F3004022B1D3F80C3403F001031370BE
:104BAC007047006901EB41018900383108447047B6
:104BBC00406800EBC10070470069C1EBC10100EB1C
:104BCC008100704708B5C9B2FFF7EBFF806800F0B1
:104BDC00070008BDEFF31182202383F31288BFF383
:104BEC006F8F036813F0C00301D08B4207D10123F0
:104BFC000360002082F31188BFF36F8F70474FF072
:104C0C00FF30F7E7EFF31182202383F31288BFF311
:104C1C006F8F036803F0C00C03F00703012B08D05F
:104C2C008C4509D04FF0FF3082F31188BFF36F8FA2
:104C3C00704701600020F7E76FF07700F4E7EFF3BF
:104C4C001182202383F31288BFF36F8F036803F064
:104C5C00C00343F00203036082F31188BFF36F8F2C
:104C6C007047F8B506460C46FFF79BFF056847688A
:104C7C00002340F8083BFFF7E2FF1DB13A462146FE
:104C8C003046A847F8BD70B506461546CCB221464D
:104C9C00FFF787FF29460830FFF79CFF002806DB4B
:104CAC0021463046FFF784FF43689847002070BDCB
:104CBC0008B58022FFF7E7FF08BD2DE9F041064655
:104CCC0090461F46CDB22946FFF76BFF0446069966
:104CDC000830FFF797FF002809DBC4F800806760F5
:104CEC0029463046FFF764FF036898470020BDE86B
:104CFC00F08110B582B080240094FFF7DEFF02B083
:104D0C0010BD10B51446C9B2FFF756FF0021A047DD
:104D1C0010BD08B50120FDF753FC08BD08B50120F6
:104D2C0001F044F808BD08B5002001F03FF808BDBB
:104D3C0008B520EAE070C117C90341EA5041C0032D
:104D4C0040F2E733C0184FF47A724FF0000341F190
:104D5C000001FBF7BDF901F0B3FD08BD08B5104625
:104D6C00FEF7B6F808BD08B5FCF770FA0020FDF7A1
:104D7C0027FC08BD0B4639B11168196041688A429D
:104D8C0009D00023136070471368036041688A429E
:104D9C00F7D14360F5E74360F3E708B50A460368CB
:104DAC00002101E019461B682BB19342FAD1FFF7A1
:104DBC00E1FF012000E0002008BDF0B51C46059E77
:104DCC00069D00F01F0C40092FD14FF0A04E0CF5A2
:104DDC00E0735EF8233059B301205AB302273843ED
:104DEC0054B30C2738434EB34FF4E06738433DB30C
:104DFC004FF44037384323EA000019B30B781AB349
:104E0C001278520013430CB3227892001343FEB174
:104E1C00327812021343EDB12A7812041343034380
:104E2C000CF5E07C4EF82C30F0BD4FF0000ECEE7C8
:104E3C000020D2E70027D2E70027D3E70027D5E7E9
:104E4C000027D7E70023DAE70022DBE70022DDE7C3
:104E5C000022DFE70022E1E770B504460D46164656
:104E6C00036833B1FFF799FF70B91EB96FF01500E5
:104E7C0006E032B123682B602560636843B10020E3
:104E8C0070BD6FF01500FBE7002EF3D10020F7E7A3
:104E9C0065600020F4E770B50E461546016821B137
:104EAC000C683CB131B90C4604E00C4602E02346D8
:104EBC0021461C4671B18A682A4002D04B683046A4
:104ECC009847002CF3D02368002BF1D0002CEFD1A5
:104EDC002346EDE770BD0069003818BF012070470C
:104EEC0010F0100F04D110F0200F03D100207047E8
:104EFC000320704701207047002070470020704746
:104F0C0043685B68D3F810350B60002070472DE9BF
:104F1C00F04105460C4643685F6802EA010821EA45
:104F2C000206FFF7EBFF002809DBC7F80885C7F876
:104F3C000C654FF4003221462846FFF7DDFFBDE833
:104F4C00F08170B504460D4643685E68FFF7D6FFE6
:104F5C00002807DBC6F808554FF4003229462046D6
:104F6C00FFF7CAFF70BD70B504460D4643685E6816
:104F7C00FFF7C4FF002807DBC6F80C554FF40032CE
:104F8C0029462046FFF7B8FF70BD2DE9F0410546D4
:104F9C000C4643685F68D7F8046521EA06080E40A2
:104FAC00FFF7ACFF002809DBC7F80885C7F80C65CC
:104FBC004FF4003221462846FFF79EFFBDE8F081F2
:104FCC00B0F5800F07D0B1F1C06F0DD0B1F1007FFB
:104FDC0008D001207047B1F1007F01D00520704747
:104FEC0004207047022070470320704708B5006901
:104FFC000430FFF731FF08BD10B500F01F04400965
:10500C00FCF7BCF930B1014600690122A240043022
:10501C00FFF741FF10BD00B54368136001E0083392
:10502C001360136890F808C0D0F804E00EEBCC0CB9
:10503C00634505D293F805C08C45F0D1002001E002
:10504C006FF001005DF804FB61B900F01F0140092D
:10505C0006D14FF0A04201238B40C2F80C357047AB
:10506C000022F8E700F01F01400906D14FF0A042E2
:10507C0001238B40C2F8083570470022F8E738B599
:10508C0005460C460321A047002806DB01212846D3
:10509C00A047002800DB002038BD10F1860FFBD1A3
:1050AC00F4E743681B68EFF31182202181F3128827
:1050BC00BFF36F8FD3F8201131B10021C3F8201149
:1050CC00D3F820110121D96082F31188BFF36F8FBF
:1050DC0070470269936823EA0101916011F0030F94
:1050EC0004D143681B680022C3F80025704743684D
:1050FC001B68D3F88004C3F88004704743681A68AF
:10510C005B6803F00103D2F8581129B933B9D2F80E
:10511C0020312BB9002070470120704700207047C8
:10512C000120704743681B680822C3F800257047AC
:10513C0008B5026993681943916013F0030F00D00E
:10514C0008BDFFF7EFFFFBE710B543681C68C4F818
:10515C004415C4F848250022C4F82021D4F82011A5
:10516C00C4F85821D4F858215B6813F0040F02D10D
:10517C000123A36010BD0121FFF7DAFFF8E738B572
:10518C0005460C4643681B684FF48002C3F80423A1
:10519C00FFF7B4FF20B92368012283F8B82038BD8B
:1051AC002368002283F8B82023684FF0FF32C3F83D
:1051BC00B4202368D3F8AC20D3F8A8102846FFF706
:1051CC00C3FFECE74368187D012814BF00200120C1
:1051DC00704708B503691A6813680BB15268984791
:1051EC0008BD00B587B002690023019302930393B5
:1051FC000493059302238DF8043013681B6C0293FF
:10520C0013689B6C0393049101A9FFF7E2FF07B0AD
:10521C005DF804FB00B587B0002301930293039360
:10522C000493059304238DF8043002910DEB0301D4
:10523C00FFF7CFFF07B05DF804FB00B587B0002384
:10524C000193029303930493059305238DF8043083
:10525C0001A9FFF7BEFF07B05DF804FB10B50369A9
:10526C001B6840680068EFF3118C4FF0200E8EF332
:10527C001288BFF36F8F1C6CACB1DC6CB4B9D96401
:10528C001A65C0F83415C0F83825042A11D9D0F89D
:10529C00003243EA0E03C0F8003200208CF3118870
:1052AC00BFF36F8F10BD6FF00C00F7E76FF00F00BE
:1052BC00F4E70020F2E70369186820B101601B686D
:1052CC005A60002070476FF08500704700B587B0BA
:1052DC0000230193029303930493059303238DF806
:1052EC00043003691A6843681968936DD26D1343CF
:1052FC0002D00423C1F8043301A9FFF76AFF07B0F9
:10530C005DF804FB43681A685B6AC2F83435052300
:10531C00C2F838350123D362D2F81031002BFBD000
:10532C000023C2F81031D2F81031D2F84C0130B150
:10533C000023C2F84C31D2F84C31D2F83C05C0B243
:10534C00704770B50446466803691D68296C19B12D
:10535C00FFF760FF00232B64002385F8613095F87C
:10536C0062308BB1002385F8623063681B680022C1
:10537C00C3F80821D3F80831736813F0040F0DD16A
:10538C002046FFF75AFF70BD736813F0040FECD082
:10539C002046FFF7B7FF85F86000E6E7EFF31185CD
:1053AC00202383F31288BFF36F8F02212046FFF76F
:1053BC0090FE85F31188BFF36F8FE1E710B444586A
:1053CC0044B11A4201D1002005E000234350435858
:1053DC00012000E0002010BC70474268136800698F
:1053EC00006868B9D3F8100168B1D26A12780A70F3
:1053FC000020C3F81001D3F8102101221A60704765
:10540C006FF0850070474FF0FF30704708B520EA09
:10541C00E070C117C90341EA5041C00340F2E733C1
:10542C00C0184FF47A724FF0000341F10001FAF703
:10543C004FFE01F045FA08BD70B5064612E075B195
:10544C00EFF31184202383F31288BFF36F8F304660
:10545C00FFF754FE98B984F31188BFF36F8F0120C6
:10546C00FFF7D4FF64243046FFF748FE05460028BA
:10547C00E5D1012000F055FC013CF4D1DFE72046DA
:10548C0070BD38B503691C6843681D68236C1BB379
:10549C0004F1080001F0B9FAEFF31182202383F331
:1054AC001288BFF36F8FE36C53B1D5F8003223F041
:1054BC002003C5F800320023C5F84C31D5F84C3127
:1054CC00002084F86100012384F862306B6082F361
:1054DC001188BFF36F8F38BD6FF00D00FBE710B56F
:1054EC0086B0044643681968D1F8802400230193E0
:1054FC00029303930493059306238DF8043012F062
:10550C00010F08D112F0020F13D112F0040F12D1B7
:10551C0002F0080300E001238DF80830C1F8802464
:10552C0001A92046FFF755FE2046FFF7AAFF06B05B
:10553C0010BD0223F0E70423EEE738B50369426897
:10554C0015681A68D2F8A01051B1002482F8B8403E
:10555C001868683001F059FA0123EB60204638BD19
:10556C006FF00D00FBE708B5406BFFF7E6FF08BDD9
:10557C0070B5054603691C6843681E6804F1080091
:10558C0001F043FAD6F83C3594F860101944002326
:10559C0084F86030A36CC91A01D4002927DC216C73
:1055AC002846FFF737FEE36C2364236D6364002306
:1055BC00E3642365A36494F86130BBB1EFF311820B
:1055CC00202383F31288BFF36F8F236C9BB1D6F823
:1055DC004C310BB901233360D6F8003223F0200391
:1055EC00C6F8003282F31188BFF36F8F70BD284666
:1055FC00FFF7F7FDD3E701237360F3E710B50469F8
:10560C0040682368D3F8A420D3F8B010521A01D103
:10561C00002010BD082A28BF0822C3F8AC2023683C
:10562C00006AC3F8A8002368D3F8A010D3F8B030F0
:10563C00194401F0FDF90120EBE72DE9F04186B0AA
:10564C000546436804691F68EFF31188202282F332
:10565C001288BFF36F8F2268D2F8B410002946DB92
:10566C00D2F8B4605B6813F0040F43D188F311884F
:10567C00BFF36F8F2368D3F8A020002A34D093F89F
:10568C00B81000293FD1D3F8A8108A4206D0D3F81D
:10569C00AC20964247D0D3F8B0301E442068683016
:1056AC0001F0B3F900230193029303930493059340
:1056BC002368D3F8A030029303962368D3F8A43060
:1056CC009E4202D001238DF804304FF48003C7F8BA
:1056DC00083322680023C2F8A0302268C2F8A43034
:1056EC0001A92846FFF775FD06B0BDE8F081D7F893
:1056FC004C65B7E74FF48003C7F8083301212846FF
:10570C00FFF7E7FCB2E7EFF31186202383F312884F
:10571C00BFF36F8F21462846FFF731FD86F31188C2
:10572C00BFF36F8FE0E7D3F8B0203244C3F8B0205A
:10573C002846FFF763FF18B92368D3F8B060ADE7CC
:10574C00EFF31186202383F31288BFF36F8F21466A
:10575C002846FFF714FD86F31188BFF36F8FC3E75C
:10576C00436B5A6812681B691B68D2F8081199B10F
:10577C000021C2F80811D2F80821596530B583B060
:10578C0003F10800D3E9162300240025CDE90045D8
:10579C00FEF7A6FA03B030BD596D013159650429E5
:1057AC00ECD1012353607047D0B582B003694268D5
:1057BC0014681A68002151651B6803F10800D3E9CD
:1057CC00162300260027CDE90067FEF789FA04238B
:1057DC00C4F8083302B0D0BD10B582B0044601AA9B
:1057EC00FFF719FC002805DB019B22681979186862
:1057FC00FBF772FF02B010BD38B5044645680021B6
:10580C00E868FFF7E9FF6B6813F0040F00D038BDB0
:10581C002046FFF787FCFAE7012904D108B5FFF70A
:10582C00EBFF002008BD6FF08500704738B5456868
:10583C002C686B6813F0010F23D100220823C4F8E5
:10584C000035AB6AC4F844350023C4F8483501234D
:10585C00A36072B9D4F82031002BFBD00023C4F81C
:10586C002031D4F820310123E3604FF48073C4F865
:10587C000433D4F85831002BFBD00020C4F80005B9
:10588C0038BD01692046FCF7E5F90028F8DB012258
:10589C00D4E710B50446002201210220FEF7F9FFDF
:1058AC000220FEF7F1FF00212046FCF7F1F910BDB4
:1058BC002DE9F041064643681C680769D7F800805B
:1058CC00D4F804532B4604224FF484712046FFF77E
:1058DC0075FD002841D12B464FF400724FF49271A4
:1058EC002046FFF76BFDE0BB2B4610224FF488716E
:1058FC002046FFF763FDC0BB15F4002F05D0D4F88C
:10590C004C3113B1D4F81031C3B315F4003F05D0AA
:10591C00D4F8443113B1D4F81031BBB315F4807FF3
:10592C0002D0D4F82031CBBB15F4800F02D0D4F8C0
:10593C005831BBBB07F10803BFF35B8F53E8002F53
:10594C0022F0040143E800100028F7D1BFF35B8F6D
:10595C0012F0040F2AD1BDE8F0813046FFF724FF86
:10596C00B9E73046FFF7BBFDBEE70023C4F81031A2
:10597C00D4F810313046FFF7FBFDBDE7C4F84C31CD
:10598C00D4F84C313046FFF7A1FCBEE7C4F84431E3
:10599C00D4F844313046FFF7D4FCBFE73046FFF76C
:1059AC0080FBC1E73046FFF748FEC3E7D8F8441048
:1059BC003046FFF716FCD8F840103046FFF72AFCAB
:1059CC000023C8F84430C8F840303046FFF735FCA7
:1059DC00C1E700B5A2F5807E4FEA9E0E4FF0010C98
:1059EC000CFA0EFC1CEA010F0DD0815809B90020ED
:1059FC000AE00021815082581BB11A684CEA02025D
:105A0C001A60012000E000205DF804FB70B582B044
:105A1C0006460D460024019409E0A20001AB02F5F4
:105A2C00A07229463046FFF7D4FF0134E4B2032CB0
:105A3C00F3D915F0010F02D0D6F8003143B915F0A7
:105A4C00020F02D0D6F8043163B9019802B070BDD0
:105A5C000023C6F80031D6F80031019B43F0010356
:105A6C000193ECE70023C6F80431D6F80431019B0E
:105A7C0043F002030193E8E7401A20F07F4070479F
:105A8C0000F150039B009BB203F1804303F5883374
:105A9C001868003818BF0120704700F150039B00B4
:105AAC009BB203F1804303F5883300221A601B6814
:105ABC00704720F07F407047EFF31180202383F371
:105ACC001288BFF36F8F704780F31188BFF36F8F0D
