:10000000401C00205D0A000041430000490A000036
:10001000490A0000490A0000490A000000000000E7
:10002000000000000000000000000000D50B0000F0
:10003000490A0000000000006D0B0000490A0000A2
:100040009D0D00009D0D00009D0D00009D0D000008
:100050009D0D00009D0D00009D0D00009D0D0000F8
:100060009D0D00009D0D00009D0D00009D0D0000E8
:100070009D0D00009D0D00009D0D00009D0D0000D8
:100080009D0D00009D0D00009D0D00009D0D0000C8
:100090009D0D00009D0D00009D0D00009D0D0000B8
:1000A0009D0D00009D0D00009D0D00009D0D0000A8
:1000B0009D0D00009D0D00009D0D00009D0D000098
:1000C0009D0D00009D0D00009D0D00009D0D000088
:1000D0009D0D00009D0D00009D0D000053B94AB913
:1000E000002908BF00281CBF4FF0FF314FF0FF3040
:1000F00000F00CB8ADF1080C6DE904CE00F008F882
:10010000DDF804E0DDE9022304B07047704700BF6A
:100110002DE9F04786468C460846089E15467446EB
:100120001946002B40F0C2808542B2FA82F245D9CE
:100130004AB1C2F1200300FA02FC2EFA03F3954003
:1001400043EA0C0C94404FEA154EA8B2BCFBFEF8F3
:10015000230C0EFB18CC08FB00F943EA0C4399452D
:1001600028D9EB1808F1FF3704D2994502D9A8F134
:1001700002072B44A3EB0903A4B2B3FBFEFC0EFB66
:100180001C330CFB00F044EA0344A04214D92C19A0
:100190000CF1FF3304D2A04202D9ACF102032C448B
:1001A000241A43EA07401EB1D44000233460736030
:1001B000BDE8F0874746DDE76346F1E792BB431BA6
:1001C00001214FEA154EAFB2B3FBFEFC200C0EFB33
:1001D0001C330CFB07F840EA0343984562D9EB183F
:1001E0000CF1FF3004D2984502D9ACF102002B4447
:1001F000A3EB0803A4B2B3FBFEFC0EFB1C330CFB09
:1002000007F744EA0344A7424ED92C190CF1FF33F7
:1002100004D2A74202D9ACF102032C44E41B43EA06
:100220000040C0E7C2F1200320FA03F1954090405E
:100230002EFA03F303434FEA154EAFB2B1FBFEFCB7
:100240000EFB1C10190C0CFB07F841EA0041884515
:1002500004FA02F422D969180CF1FF3004D288455F
:1002600002D9ACF102002944A1EB08019BB2B1FB19
:10027000FEFC0EFB1C110CFB07F743EA01439F42F7
:100280000ED9EB180CF1FF3104D29F4202D9ACF128
:1002900002012B44DB1B41EA004192E76046E3E7A1
:1002A0006146F7E76046A3E76346B7E7834206D9AE
:1002B00016B9002108467BE7C6E900E0F9E7B3FA82
:1002C00083F78FB9834201D3724508D8BEEB02048D
:1002D00060EB030301209C461EB9002168E7384605
:1002E000FAE7C6E9004CF8E7C7F1200CBB4022FA58
:1002F0000CF41C432EFA0CF120FA0CF3B840014325
:100300004FEA14490EFA07F5B3FBF9F81FFA84FE19
:1003100009FB18300B0C08FB0EFA43EA00439A4520
:1003200002FA07F240D9E31808F1FF3004D29A45E7
:1003300002D9A8F102002344A3EB0A0389B2B3FB5C
:10034000F9F809FB183308FB0EFE41EA03418E451C
:100350002CD9611808F1FF3304D28E4502D9A8F1D7
:100360000203214443EA0040A0FB0298A1EB0E01E6
:100370004145CE46434602D306D14D4504D2B9EBA2
:10038000020E68EB04030138002EA6D0B5EB0E0276
:1003900061EB030101FA0CFC22FA07F34CEA0303B8
:1003A000F940C6E9003198E74046C5E74346D9E73A
:1003B00000B585B011E0019B01330193019A154B03
:1003C0009A42F8DD02A803F0CCFC02460B46124824
:1003D00003F017FE142003F0E7FC05F0C6FC4A0109
:1003E00042EAD06243011B1A62EB0102920042EA28
:1003F00093729B001B1842EB0102D20042EA537237
:10040000C3F3103343EA4243D20B02930392002317
:100410000193D3E7DF9304005861000000B585B075
:1004200011E0019B01330193019A154B9A42F8DDCB
:1004300002A803F096FC02460B46124803F0E1FDC9
:10044000142003F0B1FC05F090FC4A0142EAD062AE
:1004500043011B1A62EB0102920042EA93729B0075
:100460001B1842EB0102D20042EA5372C3F310336D
:1004700043EA4243D20B0293039200230193D3E752
:10048000DF9304008061000008B5024B1B689847A9
:1004900008BD00BFC0040020014B1860704700BFBA
:1004A000C004002000B585B00A46002300930193E4
:1004B0000293039302238DF80230044B019301460B
:1004C000684603F0F1F905B05DF804FB890400000B
:1004D00080B505460E461746984602F03DFF034696
:1004E00005F0D4FC0446DFF8189049F80030424685
:1004F00039463046A84754F8090000F01DFB00BFFC
:10050000080000002DE9F04383B004460846154674
:10051000238B13F0080F05D103F007060023009387
:10052000019354E0012909D043F02003238385F38C
:100530001188BFF36F8F03B0BDE8F08343F0100361
:100540002383F4E7204603F094FD42E0D4F81490AE
:100550004A466946204603F0A5FD4FF00008238B6C
:1005600003F00707B74269D0A268002A66D00122CB
:1005700043F00803238385F31188BFF36F8F002AAC
:1005800064D1009B2BB14B463A466946204603F0A6
:1005900002FEB8F1000F02D034492046C047EFF305
:1005A0001185202383F31288BFF36F8F238B23F0F1
:1005B00008032383238B13F0100F4DD023F0100377
:1005C00023830120268B06F007060028AFD00228DF
:1005D000B8D00028ABD0013804282BD801A353F899
:1005E00020F000BF4D05000035060000F9050000B1
:1005F0000D060000210600002369D3F800800621C3
:10060000204603F00CFD4FF00009A8E72369D3F85A
:1006100004800421204603F002FD4FF000099EE70C
:100620002369D3F808800521204603F0F8FC4FF039
:10063000000994E74FF00008C14690E7009A0AB11C
:10064000002295E7B8F1000F92D1B3E74A46394648
:10065000204603F0ECFC94E713F0200F04D023F0C5
:10066000200323830220ADE70020ABE7C541000053
:10067000014B036000207047C061000008B50348CB
:1006800003F0BFFC024803F0BCFC08BDC0610000E1
:10069000F861000030BFFFF7FDBF00BF38B504466A
:1006A000054D2A46054905F067FB054A00216019FA
:1006B00005F070FB38BD00BF00000000486100007D
:1006C0000400000070B50646064D074B1D444C1B48
:1006D0002046FFF7E3FF083CC6F8A44005F10800F8
:1006E00070BD00BF0000000004000000074B9B68C5
:1006F00093F90E20002A08DB044A5269934204D081
:10070000034A536843F0805353607047B409002094
:1007100000ED00E038B51546204B9B6A13F4805F6E
:1007200019D116241D4B9B6A13F4006F00D01824B6
:100730001A4B9B6A13F4007F10D0184B9A6B9B6A7C
:1007400013F4004F09D0D9B1144A936A23F400433B
:100750009362192402E01724E4E719240F4B9B6AE3
:1007600013F4806F00D01A240C4B9B6A13F4807F23
:1007700008D10A4B9B6A13F4005F04D01C2402E0EA
:100780001924EBE71B24054A936A43F47F439362E1
:10079000012103F0DBFD2870204638BD00ED00E0AC
:1007A000174B9B6A13F0007F25D11D20144B9B6AC9
:1007B00013F0807F00D01F20114B9B6A13F4002F91
:1007C00000D021200E4B9B6A13F4802F00D02220F2
:1007D0000B4B9B6A13F4003F00D02320084B9B6A0D
:1007E00013F4803F09D1064A936A6FEA03436FEA24
:1007F0001343936270471E20D8E72420F3E700BF1D
:1008000000ED00E081690D4B5A6942F480725A6133
:10081000BFF34F8FBFF36F8F31F8021C5A6922F478
:1008200080725A61BFF34F8FBFF36F8F4DF6027323
:10083000994201D0002070470120704700ED00E090
:1008400070B504461646324B9B6A13F0100F1AD14E
:1008500010252F4B9B6A13F0080F00D012252C4B4C
:100860009B6A13F0020F10D0294B586B9B6A13F050
:10087000800F3DD000293FD0254A936A23F08003A2
:100880009362132503E01125E3E76FF01500204B79
:100890009B6A13F0010F00D014251D4B9B6A13F0C7
:1008A000200F00D015251A4B9B6A13F0100F04D1AE
:1008B000174B9B6A13F0020F04D0154B5B6813F4BF
:1008C000006F1BD1124B9B6A13F0200F04D0104A0B
:1008D000536A23F4005353620D4A936A43F0FF03B3
:1008E00093620121204603F031FD3070284670BD2F
:1008F0006FF015001325CAE71325C8E7214600F05D
:10090000E9F90028DED080F309880225DAE700BF84
:1009100000ED00E038B5054600230B701A4BD86A8D
:1009200010F002002DD10C46DB6A002B2ADB164B9F
:10093000D86A10F0804025D02846FFF763FF08B141
:1009400028681FE0104B9B6A13F0FF0F0DD10E4B70
:10095000986A10F47F400ED10B4B9B6AB3F5803F31
:1009600010D32846FFF71CFF0CE022460121284641
:10097000FFF766FF06E0224601212846FFF7CAFE80
:1009800000E0002038BD00BF00ED00E030B58BB0C6
:100990000C46264B5968C1F30801002383F31188E4
:1009A000BFF36F8F02F07F43B3F17F4F15D102F099
:1009B0000C03082B14D012F0080F0BD000250DF1FA
:1009C0002702204603F0C7FC86469DF8273053B126
:1009D0000BB030BD04460125F1E700252C46EEE7BB
:1009E00000252C46EBE70DF1040C20686168A26835
:1009F000E368ACE80F0020696169A269E369ACE8CB
:100A00000F0045B1C3F308025AB96FEA53236FEAE6
:100A10004323089305E0089B23F4FF7323F00103AD
:100A2000089301A9704603F07CFCD1E700ED00E0DB
:100A3000044B5A6942F010025A615A6922F00802C6
:100A40005A61704700ED00E0EFF30880EFF3098191
:100A500001B57246FFF79AFF01BD00BF002080F389
:100A60001488BFF36F8F114880F308880020104965
:100A7000087001F039FA00200E490860BFF34F8F6B
:100A800000F030F8202080F311880B484FF4046107
:100A9000401880F30988EFF314800221084380F3A3
:100AA0001488BFF36F8F00F0D7F80000401C0020BF
:100AB000F109002094ED00E0800E0020084BD3F8EF
:100AC0009000C0F30720002306E0054AC2F89830E2
:100AD0000021C2F8A01001338342F6DB704700BF4B
:100AE00000ED00E010B572B6002484F31388FFF720
:100AF000E5FF234608E003F120010E4A4FF0FF30E6
:100B000042F821000133DBB2072BF4D9002308E0BF
:100B100003F16001074A4FF0FF3042F82100013332
:100B2000DBB2072BF4D962B6BFF34F8FBFF36F8FE1
:100B300010BD00BF00E100E008B50A4B9B6883428E
:100B400002D002F00FFC08BDEFF30583002BF8D0B4
:100B5000054B5A6842F080525A605A6A22F40042A9
:100B60005A62EEE7B409002000ED00E016498A68F9
:100B70004FF030001044EFF3098C80E8F01F202084
:100B800080F31288BFF36F8F104F4FF000664A69F1
:100B90008A603E604FF0A404141920680C4C206059
:100BA000D2F8A8000023C2F8A83080F3118804B559
:100BB000104600F011F9BDE8044002F1300090E861
:100BC000F01F8CF309887047B409002004ED00E0A1
:100BD000000900201EF0040F0CBFEFF30880EFF3B4
:100BE0000980816911F8021C0229FFD001B5724603
:100BF00003F0A0FB01BD00BF002807DB00F01F02CF
:100C0000400901239340024A42F82030704700BF58
:100C100000E100E0002808DB4901C9B200F16040B2
:100C200000F5614080F80013704700F00F004901A3
:100C3000C9B2014B1954704714ED00E04209054B4D
:100C400053F8222000F01F00012303FA00F01040A7
:100C5000704700BF00E100E008B50B4B0B4A22F0E3
:100C60007F029A60BFF34F8FBFF36F8FD3F8882056
:100C700022F47002C3F8882001F0E4FE02F0D0FCF8
:100C800000F072F801F03CFF00ED00E00000000011
:100C900010B4A2F120040E4942F8081C21F0010111
:100CA00042F8081C42F8203C019B42F81C3C029B85
:100CB00042F8183C039B42F8143C4FF0807342F812
:100CC000043C04650023C0F8A83010BC704700BF86
:100CD000D1040000104B9B68BBB110F1160F0BD074
:100CE000D3F89420A2F1400C844510D8824210D948
:100CF0008A4207D800207047D3F894208A4201D84E
:100D000000207047D3F894007047002070470020FF
:100D100070470020704700BFB409002008B50E4698
:100D200015460A4A9060D0F8A420094B1A6000F0DA
:100D300053F82C4686F309880020064B9847204636
:100D4000002100220023044C204700BFB4090020EA
:100D500000090020BF430000D1040000014B102215
:100D60001A61704700ED00E0002206E003F00F0377
:100D70000949194420230B760132262A0ADC53B292
:100D8000002BF3DB03F1604303F56143202183F87B
:100D90000013F1E7704700BFFCEC00E008B5EFF38B
:100DA0000583103B044A02EBC301496852F8330043
:100DB0008847FFF79BFC08BD1C5F000008B5034B8C
:100DC000034A0121034803F04DFC08BD0000012047
:100DD000000000202862000008B5D0F89430403BA5
:100DE0000448036040234360034B8360012103F008
:100DF0003DFC08BD0409002000000B15084AC2F89C
:100E000098000B6823F01F03034343F01003C2F85C
:100E10009C308B6843F00103C2F8A030704700BFDC
:100E200000ED00E0084BD3F89030C3F30723013BFB
:100E3000984205D810B50446FFF7E0FF204610BDE4
:100E40006FF01500704700BF00ED00E010B5034CD7
:100E50000123227803F006FB207010BDEC0900206E
:100E600008B500230B4A127803F0FCFA10F1160FB4
:100E70000FD0024606E0084BC3F898200021C3F8C3
:100E8000A0100132044BD3F89030C3F307239342F0
:100E9000F1DC08BDEC09002000ED00E0044B052268
:100EA000C3F89420BFF34F8FBFF36F8F704700BF1D
:100EB00000ED00E0BFF35F8F024B0022C3F89420E7
:100EC000704700BF00ED00E038B51C4B1D681C4B9F
:100ED000D3F89030C3F307239D422BD8FFF7EAFFE6
:100EE000002409E0154B5B6804EB440103EB81012E
:100EF0002046FFF783FF0134A542F3D8114805705F
:100F000003F0D8FA10F1160F13D00E4B1A780C4BD1
:100F1000D3F89030C3F307239A4207DA084BC3F89B
:100F200098200021C3F8A0100132F0E7FFF7B6FFC8
:100F3000002038BD4FF0FF30FBE700BF34620000F7
:100F400000ED00E0EC09002008B5024B1B68984753
:100F5000002008BD10090020034B1860034A937855
:100F600043F002039370704710090020C40400206E
:100F700008B5064921F00701C1F1005202F580329F
:100F8000034802F0BEFF002008BD00BF871C002000
:100F9000140900200123044AC2F840354FF0804272
:100FA000C2F878350020704700E0014030B108B544
:100FB000034B800143F00103984708BD704700BF11
:100FC000506100000048704774090020034BC01AAC
:100FD0008010034B03FB00F0704700BF3409002072
:100FE000B76DDBB638B505460C46FFF7EFFF014697
:100FF0004022034803F0D1FB01462846A04738BDF4
:10100000E05E000030B583B005460C46FFF7DEFF1A
:101010000146402300932346054A064803F0D7FBC8
:10102000011E01DB03B030BD2846A047FAE700BF30
:1010300017480000E05E000008B510B101280DD08F
:1010400008BD0021084803F036FB836813F0070F42
:10105000F6D10021044803F08EFBF1E7012102489C
:1010600003F089FBECE700BFE05E000010B582B042
:10107000EFF31184202383F31288BFF36F8F154A97
:10108000136843F00201116013F0010F09D100232E
:1010900084F31188BFF36F8FB3B903F0C4FB02B0C0
:1010A00010BD0DF1070201214FF0804003F0E7FA77
:1010B0009DF80730012B01D00023E9E7FFF782FFFD
:1010C00003F047FB0123E3E70021034803F053FB50
:1010D000E5E700BF84090020E05E000010B5EFF3F3
:1010E0001184202383F31288BFF36F8F074A13689C
:1010F00023F00201116013F0010F04D084F3118872
:10110000BFF36F8F10BD03F093FBF7E78409002056
:1011100070B582B00546012807D14FF08043D3F85F
:101120001C3403F00303012B4BD004F0BEFC044637
:1011300018B9284B1B78002B38D1EFF311862023E8
:1011400083F31288BFF36F8F012424B94FF08043DB
:101150000222C3F8082301AA00214FF0804003F0C7
:101160008EFA20B1019B012B26D0012D24D0FCB199
:10117000304603F038F94FF08043D3F81835002B90
:10118000E9D14FF08043D3F80431002BE3D04FF086
:1011900080430022C3F80421D3F804210122C3F8BC
:1011A00018250D49C1F880219A60D4E70026CCE7C4
:1011B000012003F047FBDEE72CB186F31188BFF373
:1011C0006F8F02B070BD4FF080430222C3F804233A
:1011D000F7E700BFF109002000E100E000B585B0AD
:1011E000CDF800D0CDF804D000230293012303935F
:1011F0006B46074A03F007FB002805DB4FF48042EB
:101200000023684601F008FD05B05DF804FB00BF4F
:101210007148000008B5064B1B7803B108BD4FF4B8
:10122000A57004F0CDFB024B01221A70F6E700BF57
:10123000ED09002070B5064600220121104603F09A
:10124000B2F8114800F0F8FF104B984219D101F0A4
:1012500007F80024012C12D82146304603F02BFA5F
:1012600005462146304603F031FA094902F0B8FF3D
:10127000002805DB0123AB601C44E4B2EAE7002050
:1012800070BD6FF00400FBE7391000000000AD0BEB
:101290006462000010B50446104B0121BFF35B8F60
:1012A00053E8002F43E800100028F9D1BFF35B8F0B
:1012B0001AB1631E012B0DD910BD094803F006FABF
:1012C000084900234B608B60CB6001238B6002F0E8
:1012D000A4FFEEE72046FFF71BFFEDE730090020F3
:1012E000E05E00002009002010B504460A2806D060
:1012F000E1B2064883685B689847204610BD034802
:1013000083685B680D219847F2E700BF085F000023
:1013100010B5044C2046FFF71FFE2046FFF7BCF82F
:1013200010BD00BFE912000008B5054804F04EFBEF
:1013300018B1FFF7EDFF002008BD6FF01200FBE7CA
:10134000085F000008B9024870470020704700BFDE
:10135000F45E00002DE9F04786B0884615469946B0
:10136000446801F01F06237B46EA4316204603F03B
:101370003CFB00285DD0B5F5001F2AD00DF10C0A0A
:101380000027039704974946284603F0A3FB8DF8EE
:101390000C00009701970297CDF804A0A36823FAE8
:1013A00008F313F0010F02D1B5F1A07F18D010346B
:1013B0006A463146204604F0CEFA214B98423BD192
:1013C00001223146204604F0EAFA002006B0BDE8CA
:1013D000F087314604F1100004F0E5FA0020F5E74B
:1013E00006F01F03720917D14FF0A04203F5E07316
:1013F00052F8233013F0010FD9D104F110050DF18B
:1014000017023146284604F0B2FA0E4B984205D036
:101410000DF117030493CAE73A46E7E70DF1170108
:10142000284604F0B8FA064B9842F1D06FF00B0052
:10143000CCE76FF08500C9E76FF01500C6E700BF85
:101440000000AD0B0400AD0B2DE9F04389B0074659
:1014500089461446456801F01F082B7B48EA43186B
:10146000104603F0C7FA8DF81E0040F20633234001
:10147000B3F5837F5ED016D8062B57D006D9B3F5C7
:10148000807F0DD101238DF81D3024E003B3022BA2
:1014900003D104238DF81D301DE06FF015076FE0B8
:1014A0006FF015076CE040F20222934246D0B3F58C
:1014B000407F03D103238DF81D300CE0B3F5007F8E
:1014C00003D102238DF81D3005E06FF0150757E0BA
:1014D00000238DF81D30012606FA09F631463846FC
:1014E00003F096FA071E4BDB14F4002F2AD06B682A
:1014F000C3F80865284603F078FA50B310350DF1AB
:101500001F024146284604F032FA064614F4403FD2
:101510003AD14146284604F036FA3A4B9E422FD142
:101520009DF81F10284604F032FA29E006238DF8B2
:101530001D30D0E707238DF81D30CCE705238DF84B
:101540001D30C8E714F4802FD4D06B68C3F80C6545
:10155000D0E7C4F340438DF8083014F4803F0CBF4B
:10156000012300238DF81030002301930DF11D039A
:1015700000930DF11E0304AA02A9404603F0A7F947
:10158000384609B0BDE8F08302AA00230293039312
:10159000049305930693059204AA4146284604F055
:1015A000DAF9184B984202D06FF01507E8E714F407
:1015B000003F1AD09DF81D308DF8103014F4803F94
:1015C0000CBF012300238DF811309DF81E308DF8DB
:1015D0001230002304AA4146284604F0C0F9094B02
:1015E00098429AD06FF01507CAE700230493059339
:1015F00006930DF11E03049304AA4146284604F005
:10160000AAF9ECE70000AD0B10B54468204603F0E2
:10161000ECF908B9002010BD1034204604F0AFF9F1
:1016200008B10020F7E70021204604F0A4F9094B97
:1016300098420BD100220849204604F094F9002278
:101640000521062002F0AFFE0020E4E76FF0040061
:10165000E1E700BF0000AD0B0D4B000030B500F01E
:101660001F0C400917D14FF0A04E0CF5E0705EF84A
:1016700020500A4C2C4041EA420141EA83039DF884
:101680000C2043EA02239DF8102043EA024323433F
:101690004EF8203030BD4FF0000EE6E7F0F8FCFFCA
:1016A0002DE9F04F85B080468B460392002423E05D
:1016B0004FF0FF3638E0039BC3F80C650127029713
:1016C0003946B6F1FF3F15D0B1F1FF3F40F0E4805D
:1016D00058F80A3013F4004F40F0E280029D0022D7
:1016E0000192CDF80090C3F341233A462946304693
:1016F000FFF7B4FF0134E4B25C4580F0D3804FEAD9
:10170000840A58F82430C3F3C725C3F3C322C3F3B4
:10171000080615F0080540F0C780674911F80290E7
:1017200040F2FF129642C3D01B0E192B00F2BF806D
:1017300001A252F823F000BFB7160000A117000065
:10174000B1170000BF170000CF170000DF1700001F
:10175000ED170000AF180000AF180000AF18000030
:10176000AF180000FD17000013180000AF180000AC
:10177000AF180000AF180000AF180000AF1800004D
:10178000AF180000AF180000AF180000AF1800003D
:10179000291800003D1800005118000065180000CD
:1017A000039BC3F814652F4602954FF0FF3188E77D
:1017B000039BC3F8086501270297394681E7039B1D
:1017C000C3F810652F4602954FF0FF3179E7039B70
:1017D000C3F808652F4601230293002171E7039B9C
:1017E000C3F80C650127029700216AE7039BC3F841
:1017F00010652F4602954FF0FF3162E7039BC3F857
:101800000865B9F1000F37D02F4602954FF0FF3130
:1018100057E7039BC3F80C65B9F1000F34D02F468E
:1018200002954FF0FF314CE7039BC3F8606558F811
:101830000A10C1F300410127029742E7039BC3F856
:10184000646558F80A10C1F300410127029738E790
:10185000039BC3F8686558F80A10C1F300410127DB
:1018600002972EE7039BC3F86C6558F80A10C1F382
:1018700000410127029724E74F46CDF808904FF02A
:10188000FF314FF006091CE74F46CDF808904FF0A6
:10189000FF314FF0060914E7304603F05FF917E710
:1018A00001271CE7002004E06FF0150001E06FF055
:1018B000850005B0BDE8F08FB8620000F8B50546B8
:1018C0000E46476804F0F1F820B9154B1B7843B178
:1018D000002300E0012353B9284603F0FEF9044633
:1018E00011E00123F7E784F31188BFF36F8FEFF363
:1018F0001184202383F31288BFF36F8F284603F0EF
:101900008AF90028EFD0BB691E700122B969284608
:1019100003F0A8F984F31188BFF36F8FF8BD00BFFF
:10192000F109002038B505460C4601F1080003F026
:101930000CFC0A4B98420DD105F10C0205F5907193
:10194000207A00F00DFC237A0120984000F002FC80
:10195000002038BD6FF00400FBE700BF0000AD0BB6
:1019600010B50446436819681A69C1F824255A7DE0
:101970001B7D1343C1F86C3503F0F9F900B110BDBC
:101980000249204603F005F9F9E700BF5B4D00006E
:1019900021F07F4100F5A870014B43F820107047FB
:1019A000001001404FF480338340024AC2F84433B0
:1019B000704700BF001001404FF480338340024A5B
:1019C000C2F84833704700BF00100140014BD3F804
:1019D00004057047001001402DE9F843054689468B
:1019E0009046FFF7E9FF284603F067FA4E460327C3
:1019F00010E0FFF7EBFF0446494603F04DFAB0F55F
:101A0000000F26D9284603F058FAB8F1000F22D16A
:101A10003E19013731462846FFF7BAFF2846FFF73F
:101A2000C1FFFFF7D3FF0446C11C304603F034FA70
:101A30000A4B98420AD9284603F032FA0028D8D136
:101A4000B8F1000FE4D06FF0150000E00020BDE811
:101A5000F8830020FBE76FF01500F8E7FDFF7F003B
:101A6000034B044AC3F80823C3F84823704700BF58
:101A70000010014003000F0010B5012383406FEAFE
:101A8000030C0E4ABFF35B8F52E8001F01EA0C0EF5
:101A900042E800E4002CF7D1BFF35B8F4FF48032B3
:101AA00082400748C0F80823BFF35F8FBFF36F8FF2
:101AB0000B4214BF0120002010BD00BFA40900206C
:101AC000001001404FF480338340144AD2F80423BD
:101AD000134201D10020704710B504460123834012
:101AE000DB430F49BFF35B8F51E8002F02EA03008D
:101AF00041E8000CBCF1000FF6D1BFF35B8F22FA76
:101B000004F313F0010F03D1204603F0C9F918B113
:101B1000204603F0D2F9012010BD00BF00100140A3
:101B2000A009002001B9704701238340114ABFF387
:101B30005B8F52E800CF4CEA030C42E800C1002959
:101B4000F7D1BFF35B8F4FF4803383400A4AC2F86A
:101B50000433BFF35B8F094B1B68BFF35B8FC3403C
:101B600013F0010FDFD0064B4FF40032C3F8002111
:101B7000D9E700BFA409002000100140A0090020FF
:101B800000E100E038B514461046194603F0A1F90B
:101B900002460D490B68E01A1B184C6844F100041A
:101BA0000B604C60A2F50013B3F5400F09D2074B50
:101BB0001B68190A1B06D41841F10005044BC3E940
:101BC000004501F0EFFD38BDC0060020A809002047
:101BD000C806002038B50D4B1C68250A2406BFF343
:101BE0005F8FFFF7F3FE0346001945F10001B3F5DF
:101BF000801F0AD2064BD3E90023904271EB030306
:101C000003D210F1807041F1000138BDA809002015
:101C1000C80600202DE9F041064614461D469DF8F1
:101C200020801046194603F054F90746FFF7D2FF0B
:101C3000A04271EB050319D2201A65EB01011D4B7F
:101C4000984271F100012FD21B4B03EB0613D3E92D
:101C50000223AB4208BFA24201D1002018E0424655
:101C600039463046FFF7B8FE90B11BE0B8F1000FDF
:101C70001DD10123B340114ABFF35B8F52E8000F1F
:101C8000184342E800010029F8D1BFF35B8F002020
:101C9000094B320103EB0616C6E902450699995035
:101CA000079B7360BDE8F0816FF01500FAE76FF0F5
:101CB0001500F7E701008000B0060020A009002011
:101CC00030B585B0FFF7CCFE00231E4AC2F80835B8
:101CD000002B25DD1B4C0225C4F804531A4B4FF48E
:101CE0000032C3F8802100220121112002F05BFBA9
:101CF000112002F053FB0123A3602360134A1360F9
:101D0000002402940194124B0093124A00232046AF
:101D100003F0EFF82846FFF7BDFA204605B030BDC6
:101D20000D4A02EB03124FF0FF304FF0FF31C2E9D2
:101D300002014FF480329A400249C1F80423013372
:101D4000C6E700BF0010014000E100E0A409002048
:101D5000851B0000FFFF7F00B00600202DE9F04743
:101D600082B00446FFF7AEFE10B902B0BDE8F087BE
:101D7000FFF730FF82460D4603F0AEF80646154BDE
:101D800003EB0413D3E90289C24575EB09050BD2B5
:101D90000025304603F0A8F8002DE6D00097424613
:101DA0004B462046A847E0E70A4A230102EB04110C
:101DB000D5584F680020D0504FF0FF324FF0FF331E
:101DC000C1E902232046FFF7F7FD204603F075F82E
:101DD000DFE700BFB006002010B50D4BD3F8043389
:101DE00013F0020F03D10024002C0BDD10BD0221E3
:101DF000074803F01BF80028F5D0064A13680133A2
:101E00001360F0E72046FFF7A9FF0134ECE700BFBD
:101E100000100140A809002010B584B0B0F1FF3FC8
:101E200018D001281BDD154B9842A8BF1846044660
:101E3000134B01221A70FFF7CDFE124B1A685B6834
:101E4000801AB0F5000F0CD20444B4F5000F09D38A
:101E50000A4C07E00A4B00221A70084CEBE70124F9
:101E6000E6E7064C00201219029001900649009105
:101E700043F1000303F03DF804B010BDFFFF7F0005
:101E8000F0090020C0060020851B000008B5FFF700
:101E9000A1FE024B1B68C01A08BD00BFC00600208F
:101EA000BFF34F8F0549CA6802F4E062044B134345
:101EB000CB60BFF34F8F00BFFDE700BF00ED00E038
:101EC0000400FA05024BD3F80034002BFAD0704717
:101ED00000E0014008B5034BC3F80405FFF7F2FF2B
:101EE00008BD00BF00E0014038B503F01EF840B166
:101EF0004FF08053D3F82433C3F304236B4AC2F862
:101F0000403503F024F810B1694B6A4A5A6703F070
:101F100034F848B14FF08053D3F84432C3F342331E
:101F20004FF08042C2F83C3503F039F830B1624AD4
:101F3000D2F8FC3023F08073C2F8FC3003F045F88F
:101F400040B14FF080430022C3F80C21C3F81021A8
:101F5000C3F8382503F04BF820B14FF0804303223B
:101F6000C3F8A02503F059F860B1544B0522C3F81B
:101F700010260122C3F888260022C3F818263F2223
:101F8000C3F8142603F05FF8002846D04FF08052C3
:101F9000D2F804144A4BC3F82015D2F80814C3F839
:101FA0002415D2F80C14C3F82815D2F81014C3F86D
:101FB0002C15D2F81414C3F83015D2F81814C3F83D
:101FC0003415D2F81C14C3F84015D2F82014C3F805
:101FD0004415D2F82414C3F84815D2F82814C3F8CD
:101FE0004C15D2F82C14C3F85015D2F83014C3F89D
:101FF0005415D2F83414C3F86015D2F83814C3F865
:102000006415D2F83C14C3F86815D2F84014C3F82C
:102010006C15D2F84424C3F8702503F036F848B1A3
:102020004FF08053D3F8583203F04F034FF0804203
:10203000C2F8E43E03F03BF860B14FF08043D3F8C0
:10204000003413F0010F05D04FF080436FF0010210
:10205000C3F8002403F03DF830B11A4AD2F83C37F7
:1020600043F48063C2F83C3703F05BF84FF0102371
:10207000D3F80032002B06DB4FF01023D3F80432E4
:10208000002B00DB38BD0120FFF724FF4FF01024A8
:102090001525C4F80052FFF715FFC4F80452FFF7E6
:1020A00011FF0020FFF716FFFFF7FAFE0030014096
:1020B00000C007400DF0ADBA00ED00E00050004058
:1020C00000C000400010004010B50468CCB1B4FA64
:1020D00084F3C3F11F03DBB201229A4024EA020217
:1020E000BFF35B8F50E800CFA44504D140E8002E39
:1020F000BEF1000FF6D1BFF35B8FE6D10B70024843
:1021000010BD0248FCE700BF0000AD0B0200AD0BA4
:102110000368CB4013F0010F15D100B5026801230D
:102120008B401343BFF35B8F50E800CF944504D13D
:1021300040E8003EBEF1000FF6D1BFF35B8FEDD15A
:1021400002485DF804FB0248704700BF0000AD0B79
:102150000400AD0B014BC3F80405704700F00140CB
:10216000034BA23043F8301003EBC0035A607047B2
:1021700000F001400D4BD3F8FC1041F08072C3F821
:10218000FC20A3F55D43186840F001021A605A680C
:10219000074B5B689B1AB3F50A5FF9D3044B1860D1
:1021A00003F55D43C3F8FC10704700BF00ED00E08D
:1021B000001000E070B582B00646C0B1012832D1EF
:1021C00004224FF4807301214FF08040C0F80813BF
:1021D000024401211160034400221A601B688DF83B
:1021E00007108E4208D0002542F210740CE00C2239
:1021F0004FF482730221E7E70DF10705F4E70120B0
:1022000002F09FFF013C0CD02A4631464FF080403F
:1022100002F09FFF28B1002DF1D09DF80730012B6F
:10222000EDD0012E01D002B070BD024B00225A71D8
:10223000F9E700BFAC090020064B1B793BB9054B01
:10224000186001221A7100225A710348704703482E
:10225000704700BFAC0900200000AD0B0C00AD0BB7
:1022600008B5064B1B680BB102F091FF02F08DFF21
:102270004FF08043C3F8180508BD00BFAC0900202B
:1022800070B582B018B1012848D002B070BD4FF0CF
:102290008043D3F81824D3F8183403F003030193D0
:1022A00012F4803F13D14FF08043D3F8143413F06D
:1022B000010F10D102F069FF0190019A4FF08043A5
:1022C000C3F8182508254FF4827302262AE001A8D6
:1022D00002F066FFF1E74FF08043D3F81C3403F0BF
:1022E0000303019301A802F05BFF0028E5D01C4B1B
:1022F0001B682BB14FF080430222C3F80423C4E7CC
:102300004FF08043D3F80431002BF9D04FF08043D5
:102310000022C3F80421D3F80431B6E700254FF4B6
:102320008073012603F18044002222602268B3F505
:10233000827F0BD005F1804501232B60084B1B6881
:102340003BB14FF08043C3F804639EE7FFF712FFF1
:10235000F0E72368002BFCD000232360236894E778
:10236000AC09002010B54FF08043D3F8044308E0D7
:102370001D4B5B792BB91C4B01225A711A4B1B6800
:10238000984784B3B4FA84F0C0F11F000122824060
:1023900083009BB203F580739BB2C0B2D2B224EA31
:1023A000020403F1804319680029EAD00021196072
:1023B0001B684FF08043C3F80823012AD8D0022AB3
:1023C000DCD14FF08043D3F81814D3F8183413F04D
:1023D000030FD3D14FF080430121C3F81815C3F880
:1023E00004239960CDE710BDAC09002000F01F0266
:1023F00040090CD14FF0A04102F5E07251F82200E3
:10240000044B034043F0020341F82230704700219F
:10241000F2E700BFF0F8FCFF00487047D40400204A
:102420002DE9F04184B005460C4616461F46084685
:1024300002F0A2FF804656B32146284602F0EDFF87
:1024400028B12146284602F0A8FF002841D12146A4
:10245000284602F0B1FF10B17378012B39D0012367
:102460008DF80F30002301930096B31C721C0DF100
:102470000F01204602F021FF2879FFF7CDFF08F178
:10248000080230F8123043F0030320F81230002F16
:1024900039D02146284602F0C0FF002835D13E78C9
:1024A0002B6806F5A272002143F822102879FFF765
:1024B000B3FF08F1080230F8123023F02003DB04E8
:1024C000DB0C20F812307B782BB9114804B0BDE842
:1024D000F0811048FAE7BA7800922246314628681F
:1024E00002F091FE2879FFF797FF024608F10800F5
:1024F00032F810307603B6B2334343F0200322F8AB
:1025000010300348E2E70248E0E70248DEE700BF98
:102510000000AD0B0400AD0B70B506460D46144629
:1025200002F03BFF68B13079FFF776FF0646284698
:1025300002F022FF083036F810305B0B237002489F
:1025400070BD0248FCE700BF0000AD0B0400AD0BFE
:102550002DE9F04182B00546884616461F4603F035
:10256000E5F8AEB33A463146284602F0B2FF041E03
:1025700020DB2879FFF750FF40F834602879FFF717
:102580004BFF00EBC40047602879FFF745FF054685
:10259000404602F0F1FE083035F81030E4B2640233
:1025A000A4B2234343F4807325F81030094802B0E5
:1025B000BDE8F0812879FFF72FFF0DF107015830B2
:1025C000FFF782FD034B9842F1D19DF80740D0E719
:1025D0000048ECE70000AD0B2DE9F04385B0044660
:1025E0000D461746084602F0C7FE0646D7F800809B
:1025F000B8F1000F28D02946204602F0FDFE002841
:102600004FD100238DF80E308DF80F3001930093D9
:1026100043460DF10F020DF10E01284602F04DFE6A
:102620002079FFF7F9FE06F1080830F8183023F09A
:10263000020320F818302079FFF7EEFE30F818304A
:1026400043F0010320F818307B68F3B193F8008061
:10265000D3F804902946204602F0BFFE18B3B9F122
:10266000000F65D12079FFF7D7FE083630F8163015
:1026700023F01C0320F816302079FFF7CDFE30F848
:10268000163043EA880320F81630BA68002A53D07F
:102690005368126829462046FFF75AFF05B0BDE887
:1026A000F0832648FAE72079FFF7B6FE06F1080224
:1026B00030F8123023F02003DB04DB0C20F812305A
:1026C000B9F1000FCED0B8F1030F33D87B685B6847
:1026D00093F80090B8F1000F06D1236809F5A279AC
:1026E000002243F82920BDE7404602F09EFE034643
:1026F000216809F5A27C51F82C2022F0030241F850
:102700002C202A464946206802F064FD2079FFF714
:1027100083FE06F1080230F812304FEA49391FFAF9
:1027200089F943EA090343F0200320F8123099E7BE
:102730000248B3E70148B1E70148AFE70400AD0B39
:102740000000AD0B38B505460C4602F017FE08B97F
:10275000074838BD2146284602F098FE2146284603
:1027600003F00FF82046FFF741FE0248F1E700BFF3
:102770000400AD0B0000AD0B70B582B005460E46EF
:102780000079FFF749FE90F8603013B10B4802B0B2
:1027900070BD044640220021103003F0FBFA236D87
:1027A0000093002332464FF00041286803F013F8ED
:1027B000012384F86030A3650148E8E70C00AD0B05
:1027C0000000AD0B08B50249024803F0AAF808BDA5
:1027D000D40400200060004008B501460148FFF71E
:1027E00073FC08BD3805002010B5154CA822002147
:1027F000204603F0CFFA032323616361114AA261EB
:10280000114BE3614FF4806323620023A362636290
:10281000E36222660D4A62661022A2662367E366BF
:102820006367BFF35F8F06E0C3F10F020849895C5D
:10283000034AD15401330F2BF6D9BFF35F8F10BD7C
:10284000100400201463000010000020000000208D
:102850002063000008B5BFF35F8F00230F2B0AD859
:102860000A4AD25CD2B2C3F10F010948415C8A42E4
:1028700006D10133F2E70023BFF35F8F13B908BD20
:102880000123F9E7FFF7B0FFF9E700BF10040020CC
:1028900020630000034B00E01433034A9342FBD350
:1028A000704700BFE05E00001C5F000038B5EFF32A
:1028B0001185202383F31288BFF36F8F054B9C682B
:1028C00003F09CF885F31188BFF36F8F2046FEF765
:1028D00033F938BDB409002038B505460A4B53F822
:1028E000204002E02368984708346B1C064A52F8DF
:1028F0002330A34206D96368002BF3D0204603F0AF
:1029000080F8F1E738BD00BF4463000010B586B021
:10291000B023114C03FB004400EB400C00EB8000A3
:102920000E4B03EB80030E4A0592012204920F2204
:10293000039200220292019200930A4B4FF4A0727C
:10294000094901EBCC11204600F08EF9637B23F09E
:102950000403637306B010BDD0060020B409002044
:1029600034630000455A0000C016002008B553EA41
:10297000020102D100F0C6FC08BD0249183000F087
:102980008BFEF9E72D5C000010B586B0184C14E002
:10299000636A0593236A0493E3690393A36902932B
:1029A0006369019323690093E368A2686168206802
:1029B00000F05AF923685C6530340E4B9C42E7D333
:1029C00000F0B0FB0A4C00E030340A4B9C420BD2C2
:1029D000A26AE36AB3F1FF3F08BFB2F1FF3FF3D051
:1029E0002068FFF7C3FFEFE700F0B4FB06B010BDAF
:1029F00058600000B860000008B50B4B01221A7047
:102A00000320FFF769FFFDF739FE03F01AF80420F1
:102A1000FFF762FFFFF7B8FF03F0ABF9034A137B40
:102A200023F00103137308BDF10900208007002083
:102A300008B50146014A0248FEF770F9F92900007D
:102A40008007002008B50348034A121A002102F04B
:102A5000F0FF08BD50050020F409002010B5044621
:102A6000FFF754FFB0230B4903FB04110A4A04EBA0
:102A7000840302EB8303D9601C7404EB4411074BFD
:102A800003EB811303F5046304EB840402EB84027B
:102A9000536010BDD0060020B4090020800E002035
:102AA00070B586B000F08EFB104D114B5D61114B7F
:102AB0000593012304930024039402940194009449
:102AC0000D4B4FF480620D49284600F0CDF80646C4
:102AD0006B7B23F004036B73284603F05FF82046FA
:102AE000FFF7BCFF304606B070BD00BF8007002076
:102AF000B40900203C630000F929000040180020C0
:102B000008B50020FFF7E8FE1D4B83F308881D4C35
:102B1000636943F400736361E02384F82230002585
:102B2000E57725766576A57684F82050636A43F4C8
:102B3000E023636284F82350FDF77AFFFEF70EF975
:102B40004FF0FF33A362E362FEF7BEF9FEF736F9FA
:102B50000D4B01245C731C73C3F89450C3F8985058
:102B6000C3F8A050094A9360FFF794FE2046FFF790
:102B7000B3FE0220FFF7B0FEFFF792FFFFF758FF0A
:102B8000C016002000ED00E030080020B40900204D
:102B9000F8B50446EFF31187202383F31288BFF3BF
:102BA0006F8F0568A84212D02E1E18BF012685B966
:102BB00006BBA368E268934224D001221344A360B9
:102BC00000230BBB87F31188BFF36F8FF8BD00257F
:102BD000EAE76A682B6813605A6000232B606B6019
:102BE0006A7B22F002026A73AB6005F1180003F001
:102BF00090F8DDE70023C5F8AC30284602F0CEFFA0
:102C00000123DEE70022D9E73946024800F05EFAE8
:102C1000DCE700BFD809002010B582B0EFF31181C6
:102C2000202484F31288BFF36F8F846844B1013C81
:102C3000846081F31188BFF36F8F002002B010BD54
:102C400053EA020406D0009201930246054800F0C0
:102C500021FAF3E781F31188BFF36F8F6FF00F0054
:102C6000ECE700BFD80900202DE9F04F85B00446FD
:102C70000F4615461E46DDF838A0DDF83C90DDF81D
:102C80004080DDF84CB000F158038365C365129BAA
:102C90000422119902F00FFF2A463946204602F01D
:102CA000DEFE0546CDF80880CDF80490CDF800A0F2
:102CB0003346024639462046FDF7EAFF00236365A6
:102CC0002666C4F864A0C4F86890C4F86C80EFF37A
:102CD0001182202383F31288BFF36F8F124B196A7E
:102CE00021671C6282F31188BFF36F8FBBF1000F65
:102CF00013D01F22594604F1740003F053F8002347
:102D000084F89330084B9B685BB1D3F8A030C4F8CB
:102D1000A030284605B0BDE8F08F002384F8743059
:102D2000F0E7C4F8A030F4E7B40900200A4A936839
:102D3000C3F8A8006FF00A01C3F8AC1007494B684C
:102D400043F080534B60002383F31188BFF36F8FF0
:102D50009368D3F8AC007047B409002000ED00E0A0
:102D6000427B90F90D30002B04DB12F01F0F01D1D4
:102D7000816901B1704710B562F07F024273264A43
:102D800052F8183F93420ED10B460CE05A6842604D
:102D90000360106058601FE01A461F4CE469A242AD
:102DA00010D01B6883B17BB190F90EC093F90E204F
:102DB0009445F1D0A2EB0C02002AE7DC1A46002B66
:102DC000EBD1EFE70B46EDE7134BDA6903F118019E
:102DD000016042601060D8610F4B53F8184F9C425D
:102DE0000ED06CB10C4B9B685A7B12F01F0F0AD1AE
:102DF000DA897F2A07D9A2692AB9074A536109E00B
:102E0000054BDC68EEE7A34202D0204600F08AFBC7
:102E1000014B5C6110BD00BFB409002010B5437BBD
:102E200090F90D20002A14DB154B9A6853F8184FBF
:102E30009C4219D0C4B1824219D0537B13F01F0FAA
:102E400015D1D3897F2B12D9A36983B90C4B5A6151
:102E500014E003F07F0343734268036813605A6011
:102E6000002303604360DFE7054BDC68E3E7A24231
:102E700002D0204600F056FB014B5C6110BD00BF44
:102E8000B40900202DE9F84305460C46454B9E68E1
:102E9000737B13F0600F28D013F0200F2AD008277F
:102EA0001F4222D13B43737313F0800F24D1082FAC
:102EB0002DD04FF000093B4B53F8188F98454BD05D
:102EC000B8F1000F48D0374B9B68434502D04046CD
:102ED00000F028FB334BC3F81480102F05D0304688
:102EE00000F080FBB9F1000F3AD184F31188BFF3F1
:102EF0006F8F50E01027D3E703F07F03737372687E
:102F0000336813605A60002333607360CFE7B3689F
:102F10005BB17268336813605A600023336073607A
:102F2000727B22F002027273B360304602F002FE3E
:102F300006F1580002F003FE1A4B9B689E4202D035
:102F40004FF00009B7E7EFF3058313B94FF000091D
:102F5000B1E74FF00109AEE7124BD3F80C80B2E7AE
:102F6000114B01225A731A730022C3F89420C3F83C
:102F70009820C3F8A0200B4A9360B6E7EFF31184C2
:102F8000202383F31288BFF36F8F02F066FD84F372
:102F90001188BFF36F8F6B7B13F0600FEED1BDE82C
:102FA000F88300BFB409002030080020B3F1FF3FD0
:102FB00008BFB2F1FF3F00D1704708B50249183091
:102FC00000F06AFB08BD00BF2D5C000010B5437B1C
:102FD00090F90D20002A0ADB437B63F07F034373E3
:102FE0002B4A52F8183F934219D1002317E003F0FF
:102FF0007F0343734268036813605A6000230360D1
:103000004360E9E75A6842600360106058601EE060
:103010001A461F49C9698A420FD01B687BB173B138
:1030200090F90E1093F90E209142F1D0521A002A15
:10303000E8DC1A46002BECD1F0E70023EEE7144B56
:10304000DA6903F11801016042601060D861104B29
:103050009A6853F8184F9C420ED06CB182420ED041
:10306000537B13F01F0F0AD1D3897F2B07D9A36994
:103070002BB9074B5A6109E0054BDC68EEE7A24229
:1030800002D0204600F04EFA014B5C6110BD00BF3B
:10309000B409002010B50C4611460A4882680A4B54
:1030A0001A60EFF31183202383F31288BFF36F8F2D
:1030B000DDE90223806802F065FD2046FFF736FE59
:1030C00010BD00BFB4090020D809002008B50B4688
:1030D00059B9EFF3058242B9064A506992689042A5
:1030E00003D00846FFF722FE03E083F31188BFF305
:1030F0006F8F08BDB409002008B5034650B9EFF33F
:1031000005823AB9064A51699268914202D0FFF7A6
:103110000DFE03E083F31188BFF36F8F08BD00BF7E
:10312000B40900200023EFF31181202282F31288DA
:10313000BFF36F8F09E0064B9A68D37B013BD373D3
:1031400081F31188BFF36F8F0123002BF3D07047F9
:10315000B409002038B50023EFF31185202282F353
:103160001288BFF36F8F0EE0154BDC6817E0A242A8
:1031700002D0204600F0D6F9114B5C6185F311882E
:10318000BFF36F8F0123BBB90D4B9A68D17B01311F
:10319000D17353F8184F9C42E6D0002CE4D0537BF7
:1031A00013F01F0FE3D1D3897F2BE0D9A369002B44
:1031B000DDD1034B5A61E1E702F03EFD38BD00BFAF
:1031C000B409002008B5024802F041FD08BD00BF67
:1031D000C809002038B5EFF31184202383F3128847
:1031E000BFF36F8F224B9A68DB699A4205D0136850
:1031F000516812680A60516006E00023F8E71C4A33
:10320000D269934212D01B6893B1194A906890F921
:103210000E1093F90E209142F1D0521A002AEEDDE1
:103220005A6842600360106058600AE00023EBE7D0
:103230000F4B9A68D96903F11800106051600A6059
:10324000DA610B4B53F8185F9D420DD065B1084B06
:103250009B689D4202D0284600F064F9044B5D61F2
:103260002046FFF763FD38BD014BDD68EFE700BF87
:10327000B40900202DE9F04150EA010333D004469F
:103280000D466FF001031B1A4FF0FF3262EB010293
:10329000012B72F100022ADB6FF00106361AEFF300
:1032A0001188202383F31288BFF36F8F124FB86801
:1032B000124B1860FFF7B2FDB86822462B46104942
:1032C000183000F0E9F9BA68537B43F004035373F4
:1032D0004046FFF72BFD02F044FD301A002800DCC9
:1032E0000020BDE8F081FFF775FF0020F9E702F04C
:1032F00038FD0619D3E700BFB4090020D809002023
:103300002D5C000038B50446183002F002FDEFF3E2
:103310001185202383F31288BFF36F8F637B13F033
:10332000040F04D185F31188BFF36F8F38BD23F0EC
:10333000040363732046FFF713FDEFF3058323B106
:1033400085F31188BFF36F8FF0E729460148FFF737
:10335000BDFEEBE7D8090020014B9868704700BF1D
:10336000B40900202DE9F041EFF31186202383F307
:103370001288BFF36F8F037B13F0010F15D1044642
:10338000457B15F0080F1ED1B04600F1580702F03A
:103390009DFB30B345F020056573EFF30583BBB1AA
:1033A00031462046FFF76EFD0BE086F31188BFF330
:1033B0006F8F002383F31188BFF36F8F04231846A8
:1033C00002DFBDE8F08186F31188BFF36F8FF8E765
:1033D0003946374B986802F07BFB3046FFF7A6FC76
:1033E000EFE745F00803637313F0800F33D1A36850
:1033F0005BB16268236813605A60002323606360D6
:10340000627B22F002026273A36004F1180002F0F2
:1034100080FC384602F093FB254B9A68944227D0F3
:103420000027234B53F8185F9D4228D03DB3AA4292
:1034300002D0284600F076F81D4B5D61204600F072
:10344000D1F8FFB91A4B9B689C4229D088F31188A8
:10345000BFF36F8FB5E705F07F0545F0080565738D
:103460006268236813605A60002323606360BEE7CC
:10347000EFF305830BB90027D3E70127D1E70C4B06
:10348000DD68D4E70B4B01225A731A730022C3F88C
:103490009420C3F89820C3F8A020054A9360D1E790
:1034A000EFF30583002BD1D13046FFF73FFC88E7CF
:1034B000B409002030080020044BC01AC010044B8F
:1034C00003FB00F0034B01221A547047E008002070
:1034D000ABAAAAAADC090020C3897F2B11D80E4B06
:1034E0001B687BB190F90E200C4B1B689A420CDBD9
:1034F000437B13F01F0F0AD1094B984209D00123D7
:1035000000E0002303F0010070470023FAE70023E6
:10351000F8E70023F6E700BFE4090020E0090020F7
:10352000D006002070B505460D4B1E7C06EB460309
:103530000C4C04EBC304204602F0EBFB0A4B0022C8
:103540009A552846FFF7C8FF00B970BD074B1A68A7
:10355000013AD3170649204600F09EF8F5E700BF70
:10356000B4090020E0080020DC090020E409002064
:10357000B934000038B5EFF31185202383F31288A6
:10358000BFF36F8F144B9C68144B1B68A34217D07A
:10359000124B00221A60104B1B7C114AD35C53B1B2
:1035A0002046FFF799FF30B1637B13F01F0F0FD058
:1035B0002046FFF7B7FF85F31188BFF36F8F38BD43
:1035C0002046FFF7AFFF85F31188BFF36F8FF6E753
:1035D0002046FFF7FBFCEBE7B4090020D8090020E8
:1035E000DC090020EFF31181202383F31288BFF35D
:1035F0006F8F0A4B1B6A834204D11A6F074B1A6202
:1036000007E0134613B11A6F8242FAD10BB1026F71
:103610001A6781F31188BFF36F8F7047B4090020D8
:1036200008B50648064A121A064902F006FA064884
:10363000064A121A064902F000FA08BDC00400202A
:103640004A05002074630000B8040020C004002074
:103650006C630000034B1868984200D0704700204C
:10366000FCE700BF3C05002030B1044A526890429C
:1036700001D0006870470020704700BF3C05002063
:1036800008B5044B1B680BB1002008BDFEF7FEFB1C
:10369000FBE700BFE8090020B3F1FF3F08BFB2F12C
:1036A000FF3F77D02DE9F047044692461D468160E2
:1036B0000023EFF31187202282F31288BFF36F8F6C
:1036C00026E01AF1010845F10009FFF7D9FF18EBD0
:1036D000000349EBE070236160613BE0521A66EB46
:1036E0000303026143614368636020601C604460BF
:1036F00005E0294B5A682360626014605C60FFF744
:10370000A9FF84423AD087F31188BFF36F8F01235A
:10371000002B3DD153466FF00101B1EB0A014FF090
:10372000FF3060EB0502002ACBDB1C4A11685268AF
:103730005B1842EB05026FF00101C91A60EB02034E
:1037400008461A46012973F1000301DA012000221C
:1037500020616261FFF77EFF0028CAD002694669D6
:1037600021696369914273EB060EB7DB891A63EB3B
:10377000060321616361FFF777FFEDE7084B1B68E4
:10378000002BC0D102F0A8FA0021FEF745FBBAE7F2
:10379000BDE8F087704700BF3C050020F808002016
:1037A000E809002070B5EFF31186202383F3128817
:1037B000BFF36F8F2A4B1860FFF74CFF044623E0DE
:1037C000284A136851685B1941EBE5711360516039
:1037D00000220023C4E90423204602F066FA86F39F
:1037E0001188BFF36F8FA36820469847EFF31186C7
:1037F000202383F31288BFF36F8F194A13685B1B72
:103800001360FFF727FF04463CB125696169144B3B
:103810001A68D317AA428B41D2DA44B1236962698C
:103820000F4909685B1A62EBE172236162610D4A1C
:103830000B4D2868136851681B1841EBE071136049
:10384000516000242C6002F047FA2146FEF7E4FAAA
:1038500086F31188BFF36F8FFFF78CFE70BD00BF3A
:10386000E8090020F808002010B50022EFF31184C9
:10387000202383F31288BFF36F8F134611460CE0A9
:10388000FFF7FEFE074A13685168C31841EBE07169
:1038900084F31188BFF36F8F0122002AF0D01846FD
:1038A00010BD00BFF80800202DE9F04F8DB043682F
:1038B0000293837815469A07804640F10D810024D3
:1038C0000E78002E00F00A81252E0BD04B1C03939E
:1038D0000134029B4146304698470028C0F2F680EA
:1038E0000399EDE74E788B1C252E0393F0D000272B
:1038F000B946BB46BBF11F0F38D8A6F12003102BE9
:103900000AD8DFE803F02A09093009090921090961
:103910000928092D09091F00A6F13003092B33D905
:103920002A2E37D11BF0400F55F8043B40F082801F
:10393000002BA7BF4BF0200B9946C3F100094BF0B9
:10394000280B01E04BF0010B039B13F8016B039371
:10395000002ECFD130E04BF0020B4BF0040BF3E71D
:103960004BF0080BF0E74BF0100BEDE7BBF17F0FCE
:1039700019D8A6F13003092BD2D81BF0400F03D081
:103980000A2101FB0737DFE70A2101FB09394BF068
:10399000200BD9E72E2E06D11BF0400F40F09E8061
:1039A0004BF0400BD0E76C2E31D02BD8682E36D0A0
:1039B0006A2E3CD04C2E3AD0002F46F02003B8BFE0
:1039C0002BF04002A3F16501BCBF1FFA82FB002768
:1039D000022901D9612B2FD1073525F00705DFF822
:1039E000ACA2083507271BF0080F66D00AEB070BBF
:1039F00056465E4563D1A4EB0A0A06EB0A02A9EB20
:103A000007096FE1742E9FD07A2E9DD0D4E71BF06A
:103A1000800F18BF4BF4007B4BF0800B94E71BF436
:103A2000807F18BF4BF4007B4BF4807B8CE74BF41A
:103A3000207B89E71F4687E7A6F16301122900F280
:103A4000F080DFE811F013004F00EE00EE00EE0012
:103A5000EE004F00EE00EE00EE00EE00EE00FE0085
:103A6000E900EE00EE001B00EE00AF0055F8043B4D
:103A70008DF8183001270DF1180AB4E755F804AB9A
:103A8000834BBAF1000F08BF9A461BF0400F14BFDA
:103A900039464FF0FF31504602F094F90746A2E74D
:103AA000029B41462020984700280FDB013EB74289
:103AB000F6D34C44A41BB14698E74E46F7E716F8F8
:103AC000010B029B41469847002892DA98F8023091
:103AD00043F0040388F802304FF0FF3420460DB065
:103AE000BDE8F08F1BF0800F34D01BF4007F2CD08A
:103AF000073525F00705AA4669685AF8080B2BF028
:103B000010050029ADB237DA404261EB410145F4BE
:103B100080650DF1180B0A235A4602F05FF9A0EBFD
:103B20000B0301936B0662D5019B25F001019F42B7
:103B300089B240F3A180002E00F0998015F01002A8
:103B400040F09C80BB460D4623E0AA465AF8040B81
:103B5000C117D4E7AA461BF4807F5AF8041B01D191
:103B60000846F5E71BF4007F15BF48B208B241F3E1
:103B7000C01141F3C031C2E750EA0103C9D11BF0C3
:103B8000400FC6D0002FC4D12BF0110295B2BB4616
:103B9000019740F2064115EA01021CBF0BF1010B2F
:103BA00000222CE02BF010021FFA82FB0A231BF0EC
:103BB000800C49D01BF400711DBF073525F00705A7
:103BC000AA46AA461ABF5AF8080B69685AF8040BA5
:103BD00050EA010545D12BF016051BF0400FADB2A0
:103BE00042D0002F40D12BF0170295B2019715F06B
:103BF000100248D0019B002E42D103F1010B29078E
:103C00005AD4EB0706D5D9456FDD0199A9EB0B0313
:103C10005F18CB465B4649E04BF0100B102378262B
:103C2000C5E7782B04D1C6F1780343F01003BEE753
:103C3000029B4146252098470028FFF647AF0234F3
:103C400047E608230026B2E7AA461BF480715AF81B
:103C5000040BBDD01BF400711ABFC0B2614680B224
:103C6000B6E72BF0060295B20DF1180B54E725F0DC
:103C70001105ADB2BB468CE70D46B8E73B460D4695
:103C800003F1020BBBE7DDF804B082E763630000D9
:103C90005C630000CDE904324146029B2020984736
:103CA0000028FFF613AF049B059A01339945F1DC18
:103CB000A4EB0B01CC189B460AB3029B4146302073
:103CC00098470028FFF602AF8EB901342744019BC4
:103CD000391B994224DC1D465DBB019AA9EB0B09F7
:103CE000224455461446914435E0019F92E7023440
:103CF00041463046029B98470028E7DAE6E640F264
:103D000006410D42E2D015F0020F14BF2B202020F7
:103D100015F4806F04F10104414618BF2D20E9E736
:103D2000029B414630209847002804F10104CEDA76
:103D3000CCE606AB013D4146585D029B9847002802
:103D4000CADAC3E6029B414620209847002804F1C6
:103D50000104FFF6BBAEA9EB0403002BF2DCBFE5C8
:103D6000704710B5044602F000F88E464A0142EA58
:103D7000D06243011B1A62EB0102920042EA937285
:103D80009B001B1842EB0101C90041EA5371C3F3C8
:103D9000103343EA4143C90B20686268181A236054
:103DA000616061EB020110BD08B520EAE070C11747
:103DB000C90341EA5041C00340F2E733C0184FF451
:103DC0007A724FF0000341F10001FCF787F901F02E
:103DD00042FF08BD00EBC1018368B3F5004F0AD371
:103DE00022B14B6843F001034B6070474B6823F0EE
:103DF00001034B60704722B14B8843F001034B80B5
:103E000070474B8823F001034B807047131D50F817
:103E10002330DBB9C3684FF0010C0CFA02FC43EA13
:103E20000C03C360043240F8221000EBC103826827
:103E3000B2F5004F06D399608268B2F5004F03D304
:103E4000D96070479980F7E7D980704710B500EBCB
:103E5000C30C8468B4F5004F1CD3DCF8082000EBD9
:103E6000C10EB4F5004F18D3CEF808208468B4F51D
:103E7000004F15D3CEF80C3000EBC2028368B3F5C7
:103E8000004F10D3D1608368B3F5004F0DD3CCF849
:103E9000081010BDBCF80420E1E7AEF80420E5E707
:103EA000AEF80630E8E7D180EDE7ACF80410F0E7B3
:103EB00008B58368B3F5004F07D300EBC102526821
:103EC0005208012A02D0002200E00022A2B900EB31
:103ED000C102B3F5004F10D352685208B3F5004F3A
:103EE0000DD308230833A2EBD3020132B2FA82F2D7
:103EF000C2F11F02FFF78AFF08BD5288EDE70423D5
:103F0000F0E7F8B5B2F5802F23D30823D21ACC1DE1
:103F100024F0070401EB020C2CF0070CACEB040CB2
:103F20004FEADC010460A1600023E360BCF5802F50
:103F300011D308230833A1EBD3030133B3FA83F37E
:103F4000C3F1200EC3F124039B00DE1DF5080023FE
:103F500008E00423DAE70423ECE71A1D002044F804
:103F6000220001337345F8DB6B00BCF5802F32D3A0
:103F70006360BCF5802F30D300232360BCF5802F15
:103F80002ED3636843F0010363604A1B570026F099
:103F90000703E018BCF5802F27D34760A068B0F571
:103FA000004F24D3E5502CF00703A444A068B0F5DB
:103FB000004F1ED30020CCF80400A068B0F5004FDD
:103FC0001BD3E25001222046FFF704FF294620467A
:103FD000FFF76EFFF8BD6380CBE700232380CDE7BA
:103FE000638843F001036380CFE74780D6E7E5525B
:103FF000D9E70020ACF80200DFE7E252E2E7002058
:1040000070470FB400B583B004A951F8040B0191B7
:10401000FCF748FA03B05DF804EB04B0704701F018
:104020000701038B23F007030B43038370472DE93C
:10403000F04106460F469046816821B10C683CB1BC
:1040400031B90C4604E00C4602E0234621461C46EA
:1040500069B14D6843463A463046A847002CF4D033
:104060002368002BF2D0002CF0D12346EEE7BDE808
:10407000F081038B13F0070303D102680AB1032018
:104080007047022B03D0012B06D000207047428BD3
:10409000002AF8D10420704703680BB1052070474F
:1040A0000020704710B504468C46038B002A07DBBE
:1040B00003F007035A1F012A0ED9042B36D010BD76
:1040C000D0E900018CE80300002323606360012134
:1040D0002046FFF7A4FFF2E7D0E900018CE80300D7
:1040E000002222606260062B1BD1DCF8003053B145
:1040F000628B013262831A461B68002BF7D0002ABC
:10410000F5D11346F3E702212046FFF788FF20464A
:10411000FFF7AFFF0028D2D0238B43F02003238387
:10412000CDE700212046FFF77AFFF0E70021FFF7F7
:1041300076FF2046FFF79DFF0028C0D0238B43F079
:1041400020032383BBE750B110B50C4651B1081DC5
:1041500000F0C2F810B9A368032B06D810BD6FF0A9
:10416000150070476FF01500F8E76FF01500F5E7E0
:104170002DE9F04107460C4616461D461946201DFE
:1041800000F0C1F828B180462B4632462146384619
:10419000C047BDE8F0812DE9F04180460C46174646
:1041A0001E4604E033463A464046FFF7E1FF2168E9
:1041B00031B10D68256063688B42F3D16560F1E72A
:1041C000BDE8F08108B5EFF311824FF0200C8CF3BD
:1041D0001288BFF36F8F41610121FCF793F908BD8D
:1041E000034670B181B10A688AB14A6892B1002071
:1041F000186058609860D8601861586198611961BA
:1042000070476FF0150070476FF0150070476FF042
:10421000150070476FF01500704770B505460E46E3
:10422000FFF791FF041E2EDBEFF31182202383F3AF
:104230001288BFF36F8FB5F818C00CF0070C6B8BAA
:104240004FF6FF718B422CD06446BCF1020F08D0B0
:10425000BCF1060F19D8DFE80CF01E1818181E2A3A
:104260001E0001336B8301230021084628B1002082
:104270003060686808B306606E6009BB82F311881D
:10428000BFF36F8F0BBB204670BD6FF0040400239B
:1042900019461846EAE7BCFA8CF1490900230120C7
:1042A000E4E76FF00A04002319461846DEE76FF0D2
:1042B0008504002319461846D8E76E602E60DCE7B7
:1042C00002212846FCF71EF9DDE70023624631464D
:1042D0002846FFF74DFFD6E7024658B1436803F082
:1042E0000303012B03D0032B07D1036843B1002044
:1042F000906070476FF0150070476FF015007047C1
:104300006FF0150070470346426802F003028160B7
:10431000032A03D1006800225A6070470020FAE7A0
:10432000704708B5012802D0FEF7C0FA08BDEFF3C8
:104330000583F9E708B501460068FFF7F2FF08BDFD
:1043400008B5FCF7A7F9FCF7D1F908BD00207047C4
:1043500000230B70704708B500231370CB1E092B88
:104360001AD8DFE803F005090D11191919191914E4
:104370001146FCF7CFFA10E00021FCF761FA0CE0DF
:104380000021FCF7C7F908E0FCF70AFA05E011463E
:10439000FFF7DEFF002000E0002008BD08B540B2B6
:1043A000FCF72AFC08BD08B5013140B2FCF732FC2D
:1043B00008BD08B500210120FFF7B3FF08BD61B6B5
:1043C00062B680F31188BFF36F8F704772B6002317
:1043D00083F31188BFF36F8FBFF34F8F30BF62B687
:1043E000BFF36F8F704772B6002383F31188BFF35A
:1043F0006F8FBFF34F8F20BF80F31188BFF36F8F94
:1044000062B6704743685A1E134206D11F2B06D965
:1044100003681A4205D00020704700207047002032
:1044200070470120704700B585B00B6801934B6859
:104430008A68202B12D9B3F1004F11D8013BB3FA8F
:1044400083F3C3F11F035B0003F03E0313430393A5
:1044500001A9FCF7E7FC05B05DF804FB0823F5E7CC
:104460003E23F3E72DE9F84380460F46994616466A
:10447000002509E02146F0B2FFF7D5FF064610F10E
:10448000160F14D001360135BD4210DA05EB450494
:1044900008EB84046268002AF5D0B9F1000FE9D076
:1044A0002046FFF7AFFF0028E4D16FF01506304635
:1044B000BDE8F883F0B585B0054603A8FCF7D8F849
:1044C0000646002424E0B3F5801F20D15768095820
:1044D0009368202B64D9B3F1004F63D8013BB3FA42
:1044E00083F3C3F11F035B0003F03E0343F08853E3
:1044F00043F4302300970191029369462878FCF732
:1045000091FC0028C0F2A8802B7801332B70013475
:10451000B44280F0A4802001039901EB0412D36817
:104520001B0D1B05B3F5000F5ED01DD8B3F5001FA2
:104530003AD0B3F5800FC6D1576809589368202B3D
:104540004ED9B3F1004F4DD8013BB3FA83F3C3F119
:104550001F035B0003F03E0343F0E06343F40033CA
:10456000009701910293C8E7B3F1807F56D0B3F171
:10457000007FCCD1576809589368202B68D9B3F1D4
:10458000004F67D8013BB3FA83F3C3F11F035B000D
:1045900003F03E0343F48023009701910293ACE7BC
:1045A0000823A3E73E23A1E7576809589368202B07
:1045B00012D9B3F1004F11D8013BB3FA83F3C3F121
:1045C0001F035B0003F03E0343F0885343F40023D2
:1045D00000970191029390E70823F5E73E23F3E764
:1045E0000823B9E73E23B7E7576809589368202B9B
:1045F00010D9B3F1004F0FD8013BB3FA83F3C3F1E5
:104600001F035B0003F03E0343F0827300970191A8
:10461000029372E70823F7E73E23F5E75768095846
:104620009368202B10D9B3F1004F0FD8013BB3FA98
:1046300083F3C3F11F035B0003F03E0343F0887371
:1046400000970191029358E70823F7E73E23F5E727
:1046500008239FE73E239DE76FF0150000E0002050
:1046600005B0F0BD08B5FCF7F1FB08BD08B5FCF7D7
:10467000F7FB08BD08B5FCF767FC002008BD034642
:1046800019B101290CD000207047D3F81804C0F3E9
:1046900000407AB1D3F8183403F003031360704775
:1046A000D3F80C04C0F3004022B1D3F80C3403F06B
:1046B000010313707047006901EB41018900383133
:1046C00008447047406800EBC10070470069C1EBC7
:1046D000C10100EB8100704708B5C9B2FFF7EBFFDD
:1046E000806800F0070008BDEFF31182202383F3F8
:1046F0001288BFF36F8F036813F0C00301D08B42A1
:1047000007D101230360002082F31188BFF36F8F6C
:1047100070474FF0FF30F7E7EFF31182202383F368
:104720001288BFF36F8F036803F0C00C03F0070318
:10473000012B08D08C4509D04FF0FF3082F311884F
:10474000BFF36F8F704701600020F7E76FF07700CD
:10475000F4E7EFF31182202383F31288BFF36F8F06
:10476000036803F0C00343F00203036082F311887F
:10477000BFF36F8F7047F8B506460C46FFF79BFFF7
:1047800005684768002340F8083BFFF7E2FF1DB1CA
:104790003A4621463046A847F8BD70B5064615464C
:1047A000CCB22146FFF787FF29460830FFF79CFF70
:1047B000002806DB21463046FFF784FF4368984710
:1047C000002070BD08B58022FFF7E7FF08BD2DE986
:1047D000F041064690461F46CDB22946FFF76BFFD3
:1047E000044606990830FFF797FF002809DBC4F854
:1047F0000080676029463046FFF764FF03689847EA
:104800000020BDE8F08110B582B080240094FFF74D
:10481000DEFF02B010BD10B51446C9B2FFF756FF57
:104820000021A04710BD08B50120FDF729FD08BDF6
:1048300008B5012000F0CAFC08BD08B5002000F052
:10484000C5FC08BD08B520EAE070C117C90341EAFC
:104850005041C00340F2E733C0184FF47A724FF072
:10486000000341F10001FBF739FC01F0F4F908BD48
:1048700008B51046FEF78CF908BD08B5FCF7CAFC70
:104880000020FDF7FDFC08BD0B4639B11168196029
:1048900041688A4209D0002313607047136803609F
:1048A00041688A42F7D14360F5E74360F3E708B512
:1048B0000A460368002101E019461B682BB19342A8
:1048C000FAD1FFF7E1FF012000E0002008BDF0B5BC
:1048D0001C46059E069D00F01F0C40092FD14FF08D
:1048E000A04E0CF5E0735EF8233059B301205AB3A3
:1048F0000227384354B30C2738434EB34FF4E067D4
:1049000038433DB34FF44037384323EA000019B32E
:104910000B781AB31278520013430CB3227892002A
:104920001343FEB1327812021343EDB12A78120418
:10493000134303430CF5E07C4EF82C30F0BD4FF0F0
:10494000000ECEE70020D2E70027D2E70027D3E70A
:104950000027D5E70027D7E70023DAE70022DBE7C7
:104960000022DDE70022DFE70022E1E770B5044620
:104970000D461646036833B1FFF799FF70B91EB9AB
:104980006FF0150006E032B123682B602560636884
:1049900043B1002070BD6FF01500FBE7002EF3D18E
:1049A0000020F7E765600020F4E770B50E46154675
:1049B000016821B10C683CB131B90C4604E00C46E9
:1049C00002E0234621461C4671B18A682A4002D083
:1049D0004B6830469847002CF3D02368002BF1D069
:1049E000002CEFD12346EDE770BD0069003818BFF9
:1049F0000120704710F0100F04D110F0200F03D1E8
:104A00000020704703207047012070470020704746
:104A10000020704743685B68D3F810350B600020B6
:104A200070472DE9F04105460C4643685F6802EA8D
:104A3000010821EA0206FFF7EBFF002809DBC7F8AF
:104A40000885C7F80C654FF4003221462846FFF769
:104A5000DDFFBDE8F08170B504460D4643685E6831
:104A6000FFF7D6FF002807DBC6F808554FF40032E1
:104A700029462046FFF7CAFF70BD70B504460D46B3
:104A800043685E68FFF7C4FF002807DBC6F80C55D3
:104A90004FF4003229462046FFF7B8FF70BD2DE9DC
:104AA000F04105460C4643685F68D7F8046521EA83
:104AB00006080E40FFF7ACFF002809DBC7F80885A1
:104AC000C7F80C654FF4003221462846FFF79EFFD9
:104AD000BDE8F081B0F5800F07D0B1F1C06F0DD007
:104AE000B1F1007F08D001207047B1F1007F01D003
:104AF000052070470420704702207047032070474C
:104B000008B500690430FFF731FF08BD10B500F0AB
:104B10001F044009FCF716FC30B101460069012270
:104B2000A2400430FFF741FF10BD00B54368136099
:104B300001E008331360136890F808C0D0F804E06F
:104B40000EEBCC0C634505D293F805C08C45F0D133
:104B5000002001E06FF001005DF804FB61B900F096
:104B60001F01400906D14FF0A04201238B40C2F83B
:104B70000C3570470022F8E700F01F01400906D10C
:104B80004FF0A04201238B40C2F808357047002245
:104B9000F8E738B505460C460321A047002806DB98
:104BA00001212846A047002800DB002038BD10F175
:104BB000860FFBD1F4E743681B68EFF311822021D5
:104BC00081F31288BFF36F8FD3F8201131B1002128
:104BD000C3F82011D3F820110121D96082F3118884
:104BE000BFF36F8F704710B543681C68D4F8043367
:104BF00013F4807F02D0D4F8203113B9D4F858319F
:104C000010BDFFF7D8FFF9E743681B68D3F88004AD
:104C1000C3F88004704743681A685B6803F00103B7
:104C2000D2F8581129B933B9D2F820312BB9002064
:104C3000704701207047002070470120704742688C
:104C400013680821C3F80015117A51B9D269C3F865
:104C500034250122C3F83825C3F81011D3F81011F8
:104C60001A60704743681B68C3F84415C3F84825A9
:104C70000022C3F82021D3F82011C3F85821D3F81B
:104C8000582101229A60704742681368D3F81001D6
:104C900050B1D26912780A700020C3F81001D3F81D
:104CA000102101221A6070474FF0FF30704708B59D
:104CB00020EAE070C117C90341EA5041C00340F245
:104CC000E733C0184FF47A724FF0000341F100014E
:104CD000FBF704FA00F0BFFF08BD70B5064612E00E
:104CE00075B1EFF31184202383F31288BFF36F8F24
:104CF0003046FFF790FF98B984F31188BFF36F8FA8
:104D00000120FFF7D4FF64243046FFF784FF0546F7
:104D10000028E5D1012000F014FA013CF4D1DFE7CE
:104D2000204670BD10B582B0044601AAFFF7FDFE13
:104D3000002805DB019B226819791868FCF7B0FC94
:104D400002B010BD10B5044643680021D868FFF7D3
:104D5000E9FF2046FFF773FF10BD012904D108B514
:104D6000FFF7F0FF002008BD6FF08500704738B5F1
:104D700045682C686B6813F0010F23D100220823CB
:104D8000C4F80035AB69C4F844350023C4F848358D
:104D90000123A36072B9D4F82031002BFBD000238B
:104DA000C4F82031D4F820310123E3604FF480733C
:104DB000C4F80433D4F85831002BFBD00020C4F8D9
:104DC000000538BD01692046FCF7ACFD0028F8DB82
:104DD0000122D4E710B50446002201210220FFF78A
:104DE000E2FA0220FFF7DAFA00212046FCF7B8FDCC
:104DF00010BD00B5A2F5807E4FEA9E0E4FF0010C6B
:104E00000CFA0EFC1CEA010F0DD0815809B90020E4
:104E10000AE00021815082581BB11A684CEA020254
:104E20001A60012000E000205DF804FB70B582B03C
:104E300006460D460024019409E0A20001AB02F5EC
:104E4000A07229463046FFF7D4FF0134E4B2032CA8
:104E5000F3D915F0010F02D0D6F8003143B915F09F
:104E6000020F02D0D6F8043163B9019802B070BDC8
:104E70000023C6F80031D6F80031019B43F001034E
:104E80000193ECE70023C6F80431D6F80431019B06
:104E900043F002030193E8E7401A20F07F40704797
:104EA00000F150039B009BB203F1804303F588336C
:104EB0001868003818BF0120704700F150039B00AC
:104EC0009BB203F1804303F5883300221A601B680C
:104ED000704720F07F407047EFF31180202383F369
:104EE0001288BFF36F8F704780F31188BFF36F8F05
:104EF0007047F0B585B0044617461D46FCF7BCFD6B
:104F000006469DF8303002930B9B01930A9B009359
:104F10003A462B462046FCF77DFE054631462046A4
:104F2000FCF700FE284605B0F0BD4FF08053D3F8E3
:104F30003031B3F1FF3F03D0062B06D0002070477D
:104F40004FF0704393F8E03FF6E7012070474FF0D1
:104F5000704393F8E02FD3F8E83FC3F30313062A16
:104F600001D000207047033B002B04D8DFE803F09A
:104F7000010001207047002070474FF08053D3F8A4
:104F80003031B3F1FF3F03D0062B06D0002070472D
:104F90004FF0704393F8E03FF6E7012070474FF081
:104FA000704393F8E02FD3F8E83FC3F30313062AC6
:104FB00001D000207047033B002B04D8DFE803F04A
:104FC000010001207047002070474FF08053D3F854
:104FD0003031B3F1FF3F03D0062B06D000207047DD
:104FE0004FF0704393F8E03FF6E7012070474FF031
:104FF000704393F8E02FD3F8E83FC3F30313062A76
:1050000001D000207047033B002B04D8DFE803F0F9
:10501000010001207047002070474FF0704393F863
:10502000E02FD3F8E83FC3F30313062A01D0002092
:105030007047033B002B04D8DFE803F00100012098
:105040007047002070474FF08053D3F83031B3F1F0
:10505000FF3F07D04FF08052D2F83421062B0AD000
:10506000002070474FF0704292F8E03FD2F8E82FEE
:10507000C2F30312F2E7033A012A04D8DFE802F090
:10508000010100207047012070474FF08053D3F892
:105090003031B3F1FF3F03D0062B06D0002070471C
:1050A0004FF0704393F8E03FF6E7012070474FF070
:1050B0008053D3F83031B3F1FF3F03D0062B06D035
:1050C000002070474FF0704393F8E03FF6E701206F
:1050D00070474FF08053D3F83021D3F83431062A8B
:1050E00001D000207047052B03D8032B03D30020E9
:1050F000704701207047012070474FF08053D3F86C
:105100003021D3F83431062A01D000207047062B15
:1051100003D8032B03D300207047012070470120E0
:10512000704708B5FFF7E9FF38B14FF01023D3F807
:1051300008224FF08043C3F8582508BD08B58047C2
:1051400008BD08B500F03CFC08BD08B5FDF744FB00
:1051500008BD034619B101290CD000207047D3F8CF
:105160001804C0F300407AB1D3F8183403F00303F5
:1051700013607047D3F80C04C0F3004022B1D3F899
:105180000C3403F00103137070470020704708B51A
:105190000020FBF753FD00B108BDFFF7FFF8FBE768
:1051A00038B504460368012B02D033B9012300E06F
:1051B00001231D461BB1284638BD0023F9E7002016
:1051C000FCF7F8FFFFF7E1FF2060F4E708B5FCF714
:1051D000F1FF08BD10B401F5A27150F8214024F48C
:1051E000473424F4407440F8214050F82140120222
:1051F00002F4F8521B0403F440331A43144340F8FA
:10520000214010BC704710B401F5A27150F8214044
:1052100024F4981424F4F85440F8214050F8214024
:10522000120202F4F8521B0403F440331A439DF8AF
:1052300004301B0503F480131A43144340F8214043
:1052400010BC704700B5A2F5807E4FEA9E0E4FF06D
:10525000010C0CFA0EFC1CEA010F0DD0815809B9A3
:1052600000200AE00021815082581BB11A684CEAE4
:1052700002021A60012000E000205DF804FBF0B596
:1052800083B005460E4617460024019409E0E2B2B9
:10529000920001AB02F5807231462846FFF7D2FF3B
:1052A0000134BC42F3D301AB4FF4BE723146284601
:1052B000FFF7C8FF019803B0F0BDF0B51C46059E8E
:1052C000069D00F01F0C40092FD14FF0A04E0CF5A9
:1052D000E0735EF8233059B301205AB302273843F4
:1052E00054B30C2738434EB34FF4E06738433DB313
:1052F0004FF44037384323EA000019B30B781AB350
:105300001278520013430CB3227892001343FEB17B
:10531000327812021343EDB12A7812041343034387
:105320000CF5E07C4EF82C30F0BD4FF0000ECEE7CF
:105330000020D2E70027D2E70027D3E70027D5E7F0
:105340000027D7E70023DAE70022DBE70022DDE7CA
:105350000022DFE70022E1E700B585B08DF80F10ED
:105360000DF10F030193002100910B460A46FFF750
:10537000A4FF05B05DF804FBC0B2704738B50D4618
:105380000079FDF749F804462846FFF7F5FF083095
:1053900034F8100000F0010038BD38B50D46007932
:1053A000FDF73AF804462846FFF7E6FF083034F8E0
:1053B0001000C0F3401038BD38B50D460079FDF738
:1053C0002BF804462846FFF7D7FF083034F81000C2
:1053D00010F01C0018BF012038BD38B50D4600790B
:1053E000FDF71AF804462846FFF7C6FF083034F8E0
:1053F0001000C0F3400038BD38B504460D46FFF735
:10540000ECFF30B129462046FFF7C7FF18B1012055
:1054100000E0002038BD0020FCE708B5FFF7DDFF05
:1054200080F00100C0B208BD7047704738B50D4626
:105430000079FCF7F1FF04462846FFF79DFF08308E
:1054400034F81000400B38BD032894BF0020012021
:10545000704770B506460D46002404E04FF0FF3358
:10546000AB4211D001341F2C0CD83079FCF7D4FF9B
:1054700004F1080330F8133013F4807FEED0C3F347
:105480004323EDE7002000E0012070BD38B504465D
:105490000D46FFF782FFB8B129462046FFF7BDFF52
:1054A00090B129462046FFF7C1FF226801238340BF
:1054B000C2F80833226800F5A27052F8203023F0B9
:1054C000030342F8203003E000212846FFF744FFA1
:1054D00038BDF8B506460F4615460024002C03DDFE
:1054E0004FF0FF342046F8BD3079FCF795FF50F8B7
:1054F0003430BB4201D00134F0E700EBC4035B68F9
:10550000AB42F8D1EEE738B50C460079FCF784FFE2
:1055100005462046FFF730FF083035F81030C3F35A
:105520008203042B11D0052B11D004F01F02640953
:1055300009D14FF0A043D3F81035D34013F0010F39
:1055400007D0032002E00023F5E7032038BD022046
:10555000FCE70220FAE710B504460846FFF70CFF07
:10556000083034F8103013F4807F04D0C3F34323A1
:1055700004EBC30010BD0020FCE770B504460E46E6
:1055800015460079FCF748FF86602079FCF744FF58
:10559000C56070BD08B50079FCF73EFF90F860006B
:1055A000003818BF012008BD70B504460D461646E8
:1055B0000368D3F80423002A03DB4FF00042C3F84A
:1055C000042329462046FFF7E8FE00B3294620467B
:1055D000FFF723FFD8B129462046FFF727FF2268AF
:1055E000830003F580739BB2002199509B58226879
:1055F00000F5A27152F8213043F0010342F8213046
:105600006EB1226801238340C2F8043307E02946C3
:105610002046FFF778FF01462846FFF79DFE70BD44
:10562000F8B504460D461646FFF795FF20B107680A
:10563000426831462846B847A3681BB1E268314644
:1056400028469847F8BDF8B507460E4614461D464D
:105650001046FFF7F9FE60B9022D28D0022130462E
:10566000FFF77AFE032C26D0022D22D0032D28D05E
:10567000F8BD224631463846FFF7D2FF06F01F0339
:10568000720912D14FF0A04203F5E07352F82330B3
:10569000C3F301439D42EBD100213046FFF75CFE8E
:1056A00029463046FFF758FEE2E70022ECE70321E7
:1056B000D5E7012CDAD1224631463846FFF7B0FF54
:1056C000D6E7022CD4D1F6E70023D3B100207047EF
:1056D00011F0010F0ED01AE04FF0A04CDCF820457D
:1056E0004EF8044BCCF8204501325C1CA242F3D3A7
:1056F000425922B90133002BEAD0002030BD0120ED
:10570000FCE711F0010F01D10133DEE730B59D0058
:105710001A4600EB830EE8E710B50C460079FCF75B
:105720007BFE21465430FCF7CFFC10BD70B505461A
:105730000846FFF721FE04462879FCF76DFE04F1C8
:10574000080330F8133013F4807F0BD0C3F34326E3
:10575000083423F4F85320F8143031462846FFF774
:1057600078FE00B170BD2879FCF756FE002340F8A2
:1057700036302879FCF750FE31465830FCF7C8FC2B
:10578000F0E770B504460D46FFF707FE48B12668FE
:1057900029462046FFF74AFE00F5A270002346F88E
:1057A000203029462046FFF7C1FF2079FCF734FE60
:1057B00004462846FFF7E0FD0830002324F81030A7
:1057C00070BD10B50C460079FCF726FE214654301A
:1057D000FCF79EFC10BD70B504460D461E460498AD
:1057E0004FF0000C01E00CF1010C84450ED25FFA81
:1057F0008CF2920002F580719208012303FA02F202
:105800001542F0D0002363506358ECE7002D04DA12
:105810000023C4F87C31D4F87C3144F30730FEF720
:10582000BDFD0EB1C4F8045370BD2DE9F04182B046
:1058300080460F4600230193C96D01A8FFF744FF7E
:10584000002676B13A6D4FF000414046FFF717FD54
:10585000F96D01A8FFF738FF0028F1D102B0BDE8CB
:10586000F08197F85C3013F0010F10D10136E8E7B2
:10587000002405F5E07354F82330C3F301432946AF
:105880003846FFF7E0FE0123AB40C4F8203502ABF9
:1058900003EB860353F8044C002CE7D094FAA4F4ED
:1058A000B4FA84F404F01F052846FFF765FD0830BC
:1058B00037F81020C2F3820201AB03EB86034FEAF4
:1058C000D40C04F0070413F80C100120A04021EAC6
:1058D000000103F80C106B09CAD14FF0A044C8E7CF
:1058E000F8B506460F46144618E094FAA4F3B3FA46
:1058F00083F301229A4024EA020403F5A27356F8C6
:105900002350C5F3042556F82300C0F30140FFF7E8
:105910008BFD024629463846FFF782FE002CE4D173
:10592000F8BD70B505460E46D0F80413C9B2326D05
:1059300041F00041FFF7A3FC041E05DB224631467F
:105940002846FFF7CDFF70BD31462846FFF76DFFB3
:1059500024F00044F2E708B5FCF73EFE08BD08B5A8
:10596000FCF75EFD08BD08B5FFF707FE08BD08B5EA
:10597000FCF7D2FD08BD08B5FCF7FEFE08BD08B572
:10598000FFF708FE08BD08B5FCF7DCFE08BD08B54A
:10599000FFF717FF08BD08B5FFF7BEFE08BD08B545
:1059A000FFF702FE08BD08B5FFF770FD08BD08B59A
:1059B000FCF750FF08BD08B5FFF7F9FF002008BD50
:1059C00000B9704708B5FBF7F1FA08BD60B1C368CC
:1059D0005A7812F0010F03D01B781BB100207047DA
:1059E000002070470120704700207047EFF31183BB
:1059F000202383F31288BFF36F8FFEE708B5FFF70C
:105A0000F5FF10B5446803688BB12046984730B164
:105A100000280ADBFF2800DDFF20E3681870E26839
:105A2000537843F00103537010BD4042F2E7002069
:105A3000F5E708B500F0AEF908BD08B500F09CF92F
:105A400008BD704708B5EFF31183202383F3128854
:105A5000BFF36F8FFEF7BAFCF5E700BF7047F8B5EC
:105A60000546D31D23F007037F3323F03F0301F1E5
:105A70004007A3F140063F2B07D8002282F311888C
:105A8000BFF36F8F0422104602DFCC182146284650
:105A9000FAF718FE073020F00700C5F89470C5F833
:105AA0009860C5F89C00201AF8BDEFF30580003817
:105AB00018BF0120704710B4002484600373427340
:105AC0008173C4738461C46110BC70470020704747
:105AD00038B504460D46FDF7A1F9637B43F0020398
